:020000040800F2
:1000000000160020A1010008A92300088D22000885
:1000100000000000000000000000000000000000E0
:10002000000000000000000000000000AD230008F8
:100030000000000000000000AB230008AF23000810
:10004000B3010008B3010008B3010008B3010008C0
:10005000B3010008B3010008B3010008B3010008B0
:10006000B3010008B3010008B3010008B3010008A0
:10007000B3010008B3010008B3010008B301000890
:10008000B3010008B3010008B3010008B301000880
:10009000B30100081524000825240008B301000856
:1000A000B3010008B3010008B3010008B301000860
:1000B000B3010008B3010008B301000800F002F822
:1000C00000F042F80CA030C8083824182D18A246B9
:1000D000671EAB4654465D46AC4201D100F034F891
:1000E0007E460F3E0FCCB6460126334200D0FB1AA7
:1000F000A246AB4633431847282900004829000090
:10010000103A02D378C878C1FAD8520701D330C860
:1001100030C101D504680C60704700000023002442
:1001200000250026103A01D378C1FBD8520700D32E
:1001300030C100D50B6070471FB50098019900F0E1
:10014000FEF91FBD10B510BD00F079FA1146FFF79A
:10015000F3FF02F01DFC00F091FA03B4FFF7F2FF89
:1001600003BC00F0C1FA000070B505460C46164607
:1001700002E00FCC0FC5103E102EFAD2082E02D38B
:1001800003CC03C5083E042E07D301CC01C5361F9E
:1001900003E021782970641C6D1C761EF9D270BDB5
:1001A0000748804707480047FEE7FEE7FEE7FEE70F
:1001B000FEE7FEE704480549054A064B7047000084
:1001C00011240008BD0000080003002000160020D4
:1001D000001200200012002070B5064600F092F9CF
:1001E000056830460B30C408E400B44201D8002052
:1001F00070BD68682A46002818D00168A14211D352
:100200000B46214608318B4208D3436801194B60E5
:1002100003681B1B0B605160046001E04168516082
:10022000001D70BD024640680028E6D121462846E0
:1002300000F070F90028DCD170BD10B5202A04DB75
:100240000146203A9140002010BD914020239C1A85
:100250000346E3401943904010BDF8B5042A2CD35F
:10026000830712D00B78491C0370401C521E830771
:100270000BD00B78491C0370401C521E830704D01E
:100280000B78491C0370401C521E8B079B0F05D036
:10029000C91ADF002023DE1B08C90AE0FFF764FF4C
:1002A000F8BD1D4608C9FD401C46B4402C4310C093
:1002B000121F042AF5D2F308C91A521EF0D40B7883
:1002C000491C0370401C521EEAD40B78491C037071
:1002D000401C012AE4D409780170F8BD01E004C093
:1002E000091F0429FBD28B0701D50280801CC90796
:1002F00000D00270704700290BD0C30702D00270F3
:10030000401C491E022904D3830702D50280801CA9
:10031000891EE3E70022EEE70022DFE7024670B520
:100320000A4392072AD11E4DEE0104C808C9541B86
:100330009443344017D0D0B2D9B2401A21060143B9
:1003400010D190B299B2401A210401430AD110028F
:100350001902000A090A401A2102014302D1100EB3
:10036000190E401A70BD9A42DFD010BA19BA8842ED
:1003700001D9012070BD0020C04370BD02780B7808
:10038000401C491C002A09D09A4207D102780B78F8
:10039000401C491C002A01D09A42EFD0D01A70BDEF
:1003A00001010101002203098B422CD3030A8B4275
:1003B00011D300239C464EE003460B433CD400225D
:1003C00043088B4231D303098B421CD3030A8B426F
:1003D00001D394463FE0C3098B4201D3CB01C01A3D
:1003E000524183098B4201D38B01C01A5241430908
:1003F0008B4201D34B01C01A524103098B4201D3F6
:100400000B01C01A5241C3088B4201D3CB00C01A62
:10041000524183088B4201D38B00C01A52414308DA
:100420008B4201D34B00C01A5241411A00D20146FF
:100430005241104670475DE0CA0F00D04942031098
:1004400000D34042534000229C4603098B422DD3E7
:10045000030A8B4212D3FC22890112BA030A8B428F
:100460000CD3890192118B4208D3890192118B42DE
:1004700004D389013AD0921100E08909C3098B4263
:1004800001D3CB01C01A524183098B4201D38B01A6
:10049000C01A524143098B4201D34B01C01A524149
:1004A00003098B4201D30B01C01A5241C3088B428E
:1004B00001D3CB00C01A524183088B4201D38B0079
:1004C000C01A5241D9D243088B4201D34B00C01A03
:1004D0005241411A00D20146634652415B10104618
:1004E00001D34042002B00D54942704763465B1060
:1004F00000D3404201B50020C046C04602BD70474F
:100500007047704700487047A4020020704770474A
:100510007047704738B504460A4600206946C04611
:10052000C046002805D002462046009900F066F833
:10053000012038BD10B5012000F07AF810BDF8B5E3
:10054000C046C046054600200C461020C046064660
:10055000A819A0420DD9324669460020C046C046BF
:10056000070001D100F064F80098A04200D00546D1
:10057000C419FFF7C7FFF61D07460560F008C00065
:100580004619284600F008F8B44204D031463868CD
:10059000A21B00F033F8F8BD0021016041608060CB
:1005A00070471020704770B50446051FFFF7AAFF7B
:1005B0000068002C1AD0446801E020466468002CD2
:1005C00001D0AC42F9D301680A18AA4204D12A68C2
:1005D00005468918016000E0456028684119A1427C
:1005E00005D16168696021684018286070BD6C6041
:1005F00070BD0000004870479C02002010B5034603
:10060000406801E003464068002801D08842F9D3E1
:100610001868C3188B4206D0CB1CD808C000001D38
:10062000411A521A0146081D0A60FFF7BCFF10BDAF
:1006300010B500F031F800F029F810BD704775468C
:10064000FFF7D8FFAE46050069465346C008C00014
:10065000854618B020B5FFF7ADFD60BC00274908FE
:10066000B6460026C0C5C0C5C0C5C0C5C0C5C0C54A
:10067000C0C5C0C5403D49008D46704710B5044611
:10068000C046C0462046FFF768FD10BD10B50028E3
:1006900001D000F029F810BD10B5012805D00021C7
:1006A00003A000F027F8012010BD09A1F8E7000021
:1006B00053494752544D454D3A204F7574206F664B
:1006C0002068656170206D656D6F727900000000B3
:1006D0003A2048656170206D656D6F727920636F97
:1006E000727275707465640001491820ABBEFEE734
:1006F0002600020070B505460C460A2000E06D1C7D
:1007000000F012F8002D06D028780028F7D102E07A
:10071000641C00F009F8002C02D020780028F7D1E2
:100720000A2000F001F870BD08B569460870032082
:10073000ABBE08BDF0B5C1B0254E00200090234FE0
:10074000F11401A8FFF7E8FD00F048F821498842BC
:1007500038D104226946204800F032FA6846017810
:1007600040780002411868468078000441186846C5
:10077000C078000640180106090E02D0050A6D1C5B
:1007800000E0050A002410E0FF22013201A93046F2
:1007900000F016FAFF22013201A9384600F022FAD1
:1007A000FF36641C0136FF370137AC42ECD3BB2067
:1007B0006946087048708870C870684600F026F86E
:1007C00001F066FD002041B0F0BD0000009000087F
:1007D00000200208CCCCCCCC0080000808B5042254
:1007E0006946094800F0ECF968460078010268465D
:1007F00040780818010268468078081801026846A7
:10080000C078081808BD00000078000810B501463F
:100810000422044800F0E6F9012801D0012010BDAF
:10082000002010BD0078000810B5FFF7D7FF03497E
:10083000884201D101F02CFD002010BDAAAAAAAA6D
:100840001FB500240094019402946946184803944B
:1008500002F03EF81749002808DC0868FF22401C17
:10086000F5320860904200D90C601FBD0C60009802
:10087000FF2280B20332811A9042F6D007DCFF38A3
:10088000401E0CD00128F0D101F028FF1FBD032924
:1008900009D00E29FAD1684601F030FF1FBD684625
:1008A00001F086FF1FBD684601F082FE1FBD0000FB
:1008B0001000002018000020F0B5454D8BB0287BBB
:1008C000032867D1002001904349009006900990C9
:1008D0000A78404C012A5DD108700E46203E284619
:1008E000318B1830029000290CD000203083170281
:1008F0003A46F069029900F075F939460298FFF717
:100900000BFDF46128690106090E20D0070A0026B4
:1009100008977F1C18E0FF2201322046029900F060
:100920004FF9FF3408980134864205D1288A3102F4
:10093000401A81B209AA02E0FF2109AA01310298F6
:1009400002F00AF8761C0990BE42E4D313E0070ACD
:1009500000260EE0FF2201322046029900F030F915
:10096000FF21013109AA6418029801F0F5FF761CF5
:100970000990BE42EED36869099988420CD00020E4
:10098000686128610120694608700246FF20123024
:1009900001F0BEFF0BB0F0BDCC206946087648766A
:1009A0008876C876042206A90C4800F01BF928694D
:1009B00069460876020A4A76020C8A76000EC876E4
:1009C000042206A9064800F00DF900F09FFEE1E7B9
:1009D00008010020002002082802002000780008FA
:1009E0000080000872B6FEE730B51A4C3523026865
:1009F00017491B01A24200D11749803201641468D3
:100A00001F252D04AC43858E2D042C4314600A460B
:100A1000703242640268803214680F252D06AC43A0
:100A2000058F2D062C4314600A46B0328264D832FA
:100A3000C264132252018A1802654F22D2008A181A
:100A400042650022C81800E004C18142FCD330BDD9
:100A500000B400400068004050B70040F0B58D6819
:100A60000C692C4360C90839002E15D00126B60741
:100A700035432C438E69CD690F8C35434E693F0653
:100A80003E433543CE68406D354348267343C01816
:100A900030C000230B4F0EE0AD04EAE7D418E6782F
:100AA000D55C36063543A67864783604240226439E
:100AB000354320C01B1DCC68240C3C5D9C42EDD806
:100AC000F0BD0000D029000803494A6901231B0436
:100AD000184302434A6170470020024010B5084B9A
:100AE0005A69084C224001246403042801D022439F
:100AF00000E0A243C800044910430843586110BDF8
:100B00000020024007E0FFFF0200010030B5054968
:100B10004C6901252C434C610260BFF36F8F436029
:100B200030BD00000020024030B50B4C002362694C
:100B30000125AD042A436261EFF3108272B620C929
:100B40005B1C20C0DBB2402BF9D320698003800FEF
:100B5000FBD182F3108830BD00200240F8B5054675
:100B600000F064FD471903263604114C03E000F041
:100B70005DFDB84214D220693042F8D121690D4898
:100B800001400D48206103D00C4841600120F8BDB0
:100B900000F04CFD451905E000F048FDA84201D3E6
:100BA0000320F8BD20694003F6D40020F8BD000002
:100BB00000200240FAC30000FBC30800EC00002044
:100BC00030B500240AE008C80B701D0A4D701D0CDA
:100BD000241D8D701B0ECB70A4B2091D9442F2D35C
:100BE00030BD0000F7B5044686B0002001900290A9
:100BF0000120C0060F460094844202D2002009B0B2
:100C0000F0BD08983D4922181F20C0062018C00AD0
:100C1000C0024018824201D90120029000F040FC3D
:100C200001203749C00308611F20C0062018C00AF0
:100C30000490C0300390019859E00098400517D106
:100C4000304802210160304A0099914204D30121C9
:100C5000C9034160039902E0042141600499816065
:100C60000121C16005A9274800F09AFB002834D172
:100C70000298012819D10020029022480221016027
:100C8000214A0099914204D30121C903416003998B
:100C900002E004214160049981600121C16005A93D
:100CA000184800F07DFB002817D100252C462E4661
:100CB00038780021F2007F1CFFF7BFFA4519614127
:100CC000761CF6B20C46082EF2D30B462A460120BB
:100CD000009900F0B5FB002802D000F0A3FB8DE7DF
:100CE0000098083000900198083080B2019008996F
:100CF0008842A2D300F096FB012080E7000800089C
:100D0000002002408C02002000000208F7B55C229F
:100D1000125CCB0582B00193012A08D0022A06D0CA
:100D2000016E022211430166012005B0F0BD066884
:100D3000B26DCB0400930B049C460B024F078D064B
:100D40008C039E46002F01D0D7071BD06F0F01D018
:100D5000970717D5019F7F0F01D0570712D5009F26
:100D60003F0F01D017070DD563465F0F01D0D7069F
:100D700008D5A70F01D0970604D573469F0E05D05E
:100D8000570603D4F76D01231F43F7654B0701D0C6
:100D9000D3071BD16B0F01D0930717D4019B5B0FB7
:100DA00001D0530712D4009B1B0F01D013070DD4A1
:100DB00063465B0F01D0D30608D4A30F01D093067E
:100DC00004D473469B0E06D0520604D50268D36D38
:100DD00002242343D3650A0605D502688032D36D09
:100DE000049C2343D365CA0505D502688032136E7F
:100DF000049C234313660068426D0A434265002049
:100E000093E770B504464030007F022802D0206E80
:100E1000082107E020688030436C9B0206D5206ED5
:100E20000121490208432066012070BD406C800307
:100E3000850F2B462046FFF711FE01202168A840B0
:100E40008031C864A065002070BD7047704700689D
:100E50008030402903D080690007000F7047006987
:100E6000FAE70000F0B59C465C231B5C022B03D024
:100E7000016E0822114348E0FF2401340368402931
:100E800038D080339D692D073DD09B69C46C9B058C
:100E90009D0F48236B43E41801262368B6073340AF
:100EA0005360236834D0DB00DB081360012623681D
:100EB00076073340936023680F26DB0FDB0713614F
:100EC000A38836049BB2D36163683340D3600126A4
:100ED000636836053340536163687600334093613D
:100EE000636800265B005B0E13626368DB0F0834E7
:100EF000536214E080331D692D0704D01B69846C94
:100F00009B059D0FC5E7016E214301660120F0BDE1
:100F1000DB005B0DC9E7A75D63469F55761CD36870
:100F2000074F1B0CFB5CB342F5D80068402903D087
:100F30008030C5610020F0BD80304561FAE70000D7
:100F4000D02900087047F0B5044600688BB0016DE9
:100F5000072292021140426D0A400692016D4A0733
:100F6000416D520F11400591016D38221140426DC3
:100F70000A400492016DF1221204476D11400F40A6
:100F8000016D072252041140426D0A400292456DE4
:100F9000016DCE43710607D4E943490604D44021CC
:100FA00001652046FFF7CEFFF0050ED4E843C005EB
:100FB0000BD4206802468030836D016EFF201940FB
:100FC00001301065204600F0E6F90698002805D0AB
:100FD000216808652046069900F0DFF90598002889
:100FE00005D0216808652046059900F083F904982A
:100FF000002805D0216808652046049900F0B2F960
:10100000B00509D4E843800506D4012021684002D8
:101010000865204600F0C2F930060DD4E84300060A
:101020000AD4206802468030436DC16D194080208B
:101030001065204600F0B0F9B00409D4E8438004FC
:1010400006D40120216840030865204600F0A2F97B
:10105000300409D4E843000406D401202168C00309
:101060000865204600F095F970040AD4E84340046E
:1010700007D40120216880030865206E8021084381
:1010800020660298002805D021680865204602994C
:10109000FFF7DCFE002F04D020680765206E384380
:1010A0002066206E002802D02046FFF7CEFE0BB04F
:1010B000F0BD0000F8B5040005D025464035287F76
:1010C000002802D006E00120F8BD00206877204605
:1010D00000F0C2F82068816910229143816100F01C
:1010E000A5FA0746012604E000F0A0FAC01B0A2872
:1010F00010D8206880690007F6D4206881693143E0
:10110000816100F093FA07460AE000F08FFAC01BF5
:101110000A2805D9206E3043206603202877D2E7BD
:1011200020688069C007F0D02068816902221143DD
:10113000816147482168814202D146496068086060
:10114000207C40210128206882693AD00A438261CC
:10115000607C0121890301282068826933D08A4399
:101160008261A07C012109030128206882692CD0BA
:101170000A43826121688869032212029043A268AF
:101180001043886120688169A422914381612168AC
:101190000A69102082430A61E168012917D00029F9
:1011A0001DD02022022916D021688B6980273B435D
:1011B0008B6121680B6903430B61E06803280AD047
:1011C0000DE08A43C3E70A43CAE78A43D1E72068B0
:1011D0008169042201E02068816911438161207ED8
:1011E0007F21400649064018E1690902FF390139AB
:1011F0000843216A491E0843A18A0A0401210904FF
:10120000521A10432268D0610320A2680002824271
:1012100010D1E26AA06A1202FF3A401E013A10435E
:10122000226B1201103A1043A28C1204511A084387
:101230002168C86020688030016CE26B1143016452
:101240002046FFF7D1FB0020A06520662E77F8BD71
:10125000006400400065004010B59AB004461421B7
:1012600013A8FFF759F84C216846FFF755F81F49B6
:101270002068884238D10120400600240090129452
:10128000684600F077FA002801D0FFF7ABFB18485A
:10129000C26B81140A43C263C26B0A401892416B4D
:1012A000012211434163406B1594104018900320B4
:1012B000C00213900220149003201790052016946A
:1012C00013A9000700F000F900221146152000F0D4
:1012D00019FA152000F00AFA00221146162000F033
:1012E00011FA162000F002FA1AB010BD0064004096
:1012F00000100240F8B50646184886422CD148072F
:101300002AD0174B40211A461F46343A1348FFF79C
:10131000A9FD40213046FFF79AFD1149C5B23A4672
:101320003439012001F0ACFA00240EE00C4A3B46AF
:10133000343A40210948FFF795FD09493A463439C6
:10134000012001F09DFA641CE4B2AC42EED300220D
:1013500007213046FFF7DAFCF8BD00003C00002012
:10136000840200207047014640310A7F012A05D0DF
:10137000016E0422114301660120704702220A77A0
:1013800001688A69520852008A6100210166084694
:10139000704770477047704770477047704700004C
:1013A000F8B51E4E044630780F4601280AD00120B9
:1013B0003070002070607D20C000FFF7CFFB002858
:1013C00002D028E00220F8BD2168042904D00021C1
:1013D000C9433960A56814E06068FFF775FB7D209C
:1013E000C000FFF7BBFB16E029466068FFF776FBFD
:1013F0007D20C000FFF7B2FB002801D03D6005E072
:101400006D1CE268A1688918A942EDD804494A69AF
:1014100002239A434A6100213170F8BDEC0000209C
:1014200000200240054901204A69C3071A434A6166
:101430004969002900DA00207047000000200240BE
:10144000F0B51FB4144C06462078154601280AD082
:101450000120207000277D20C0006760FFF77EFB21
:10146000002803D010E0022005B0F0BD012E0DD001
:1014700029460198FFF758FB7D20C000FFF76EFB5F
:1014800006494A69B2434A612770EDE72A46039B41
:101490000198FFF73BFBEFE7EC0000200020024043
:1014A000064900204A69002A07DA054A8A60054A87
:1014B0008A604969002900DA012070470020024053
:1014C00023016745AB89EFCDF0B5002303249DE0F0
:1014D00001259D402A4072D00E79B607B60F012E25
:1014E00001D0022E16D186682746B4465E00B64665
:1014F000B7406646BE43B446CF687646B7406646B8
:10150000374387604668AE430D79ED06ED0F9D4089
:10151000354345600D79ED43AD0708D0C5685F00E0
:101520002646BE40B5438E68BE402E43C6600D7948
:10153000AD07AD0F022D0ED1DD08AD002D18AC4664
:101540002D6A5E07F60E0F27B740BD430F69B740FF
:101550002F4365462F6205685F002646BE40B543AF
:101560000E79B607B60FBE402E4306604D68AD0338
:10157000AD0F4AD09E08284DB6007519AC462D6EA9
:101580009E07F60E0F27B740BD4305273F07B84219
:1015900001D1002715E0214FB84201D1012710E009
:1015A0001F4FB84201D102270BE01E4FB84201D1B4
:1015B000032706E01C4FB84202D1042701E024E0D3
:1015C0000527B7402F43144D664637662D684E6891
:1015D0009543F60200D515430F4F3D607D684E6878
:1015E0009543B60200D515437D600B4E8036756875
:1015F0004F689543BF0300D51543756035684F6844
:101600009543FF0300D5154335605B1C0A681546FA
:10161000DD4000D05CE7F0BD00180240000400503F
:1016200000080050000C0050001000500148806875
:101630007047000000000020024881680278891885
:10164000816070470000002010B508480024016840
:10165000821511430160032000F00AF8002801D030
:10166000012401E000F028F8204610BD00200240CF
:1016700070B50F4E002431780546002915D07D2025
:10168000C000FEF78FFE01460A480068FEF78AFE9A
:1016900000F0C8FC002808D1042D06D200222946FB
:1016A000401E00F02FF8756000E00124204670BD58
:1016B000000000200C00002008B50B480168012242
:1016C0001143016000681040009007484038C26B29
:1016D00001040A43C263C06B08400090032040022B
:1016E00000F096FC08BD000040100240002805DB19
:1016F000C106C90E012088400149086070470000FA
:1017000000E100E010B500F031FF10BDBFF34F8FD6
:1017100004490348C860BFF34F8F00BFFDE70000D6
:101720000400FA0500ED00E010B50F4C216803221B
:101730005202914301432160C11FFF39FA390ED192
:101740000A480621006848430949FEF72BFE401C61
:1017500002E0002805D0401E61694905F9D4002047
:1017600010BD032010BD0000007000400C000020E0
:1017700040420F00FEB5044600680027984D994E80
:10178000800355D500200090F06BC00007D4F16BAA
:10179000A8050143F163F16B0140012000909248DC
:1017A0000168821511430160FFF740FF019005E0D9
:1017B000FFF73CFF0199401A022825D88A480068A3
:1017C000C005F5D5E8690321090208400FD0216C56
:1017D00081420CD0E86903210902EA6988430121AA
:1017E00009040A43EA61EA698A43EA61E861C007D9
:1017F0000FD0FFF71BFF019008E0FFF717FF0199DB
:10180000411A7A48814201D9032709E0E869800733
:10181000F3D5E869032109028843216C0843E86194
:101820000098002804D0F16B012000078143F16388
:101830002078C00705D06869616880088000084387
:1018400068612078800705D568690C218843A16804
:10185000084368612078400705D5686930218843CE
:10186000E168084368612078C00606D568690321ED
:10187000890288432169084368612088C00406D52D
:101880006869032109028843616908436861208807
:10189000800506D56869032189048843A16A084345
:1018A00068612088400506D56869032109058843D9
:1018B000E16A084368612078800606D568690321DB
:1018C00009038843A169084368612078400606D56A
:1018D0006869032189038843E169084368612088B6
:1018E00040040ED56869216B800080080843686158
:1018F0000121206B8907884203D1F06889130843CE
:10190000F0602068000305D5686940218843616B59
:10191000084368612068810235480BD569698210E7
:10192000A36B914319436961A16B914202D1F168A4
:101930000143F160216849020AD56969E26B81437C
:1019400011436961E16B814202D1F1680143F160A9
:10195000218809050DD5A969226A890889001143E2
:10196000A961216A012904D1F168012212041143FD
:10197000F160218889040DD5A9690C229143626A1E
:101980001143A961616A042904D1F168012212049A
:101990001143F1602168C9010ED5A9690322120320
:1019A0009143626C1143A9610122616C520391421F
:1019B00002D1F1680143F160216889010DD5A9695F
:1019C000032212029143A26C1143A961A26CD11FA0
:1019D000F93902D1F1680143F1603846FEBD0000DB
:1019E00040100240001002400070004088130000C8
:1019F00000000001F8B50F46060043D04D4D2868A1
:101A00004007400FB84213D22868C008C0003843CE
:101A10002860FFF70BFE044605E0FFF707FE011BF9
:101A20004548814261D828684007400FB842F4D148
:101A30003068424C81070DD5400704D5A0680721C6
:101A400009030843A060A0680F2109028843B16818
:101A50000843A0603078C00732D0706801280AD0EF
:101A600002280BD000280FD03449403103280ED073
:101A7000C969890704E02168890301E021688901B7
:101A8000002906DB0120F8BD21684905F8E7096A4D
:101A9000EFE7A168C908C9000143A160FFF7C6FDCF
:101AA000009006E0FFF7C2FD0099411A22488142EA
:101AB0001BD8A068382108407168C9008842F1D15C
:101AC00028684007400FB84217D91A480168C9086A
:101AD000C90039430160FFF7A9FD054607E0FFF79C
:101AE000A5FD411B1448814201D90320F8BD1148CE
:101AF00000684007400FB842F1D13078400706D562
:101B0000A068072109038843F1680843A06000F03A
:101B10001DF8A1683C2289091140094A515CC90697
:101B2000C90EC8400749086007480068FFF7A0FDD4
:101B3000F8BD0000002002408813000000100240A1
:101B4000E02900080C0000200400002010B5204C03
:101B5000A068204A8006400F16D0A0688006410F7A
:101B6000501001290FD0A1688906490F022912D00F
:101B7000A0688006400F042823D0A0688006400F8C
:101B8000032821D0002010BD206801218004400FCF
:101B90008140104612E0E1688B07E1689B0F49061F
:101BA000490F491C032B00D01046FEF7FBFBE168F0
:101BB0004904490E4843E168490F491CFEF7F2FB0E
:101BC00010BD0120C00310BD7D20000210BD00002B
:101BD000001002400024F400F8B504007ED0207804
:101BE0003827C007FE4D002846D0A868E96838406D
:101BF0008907890F102802D008280BD001E003299B
:101C000008D001206268000482420AD12968014399
:101C1000296015E0286880032ED560680028DDD093
:101C20002AE0052301211B0489049A422A6802D173
:101C30000A432A60EAE782432A60286888432860CA
:101C4000606800280CD0FFF7F1FC064604E0FFF7BF
:101C5000EDFC801B642873D828688003F7D50BE05F
:101C6000FFF7E4FC064604E0FFF7E0FC801B642875
:101C7000F1D828688003F7D42078800769D5A86850
:101C8000E96838408A070721920FC902102802D05C
:101C9000002813D001E0022A10D0E068002846D0C6
:101CA000286888432169084328602868FF2101319A
:101CB00008432860FFF7BAFC06462CE02A68520564
:101CC00002D5E268002A89D06A687F231B029A4302
:101CD00063691B021A436A60002800E08DE00ED1A0
:101CE0002868884321690843286028680121800406
:101CF000400F8140BB48FEF755FBBB490860BB481D
:101D00000068FFF7B5FC002877D122E0FFF78EFCD2
:101D1000801B02289FD828684005F7D568687F2176
:101D200009028843616909020843686011E0296873
:101D3000FF20013081432960FFF778FC064605E06B
:101D4000B5E0FFF773FC801B022884D828684005A3
:101D5000F7D42078A64E00072ED5A8688006400F3D
:101D600003280AD0A0690028306A16D00121084350
:101D70003062FFF75BFC07460BE0306A80071BD53B
:101D8000A06900289FD017E0FFF750FCC01B022875
:101D9000C0D8306A8007F7D50EE0400840003062B6
:101DA000FFF744FC074604E0FFF740FCC01B022895
:101DB0007DD8306A8007F7D4207840076BD5A868B3
:101DC00000278006400F042818D0E86BC00008D414
:101DD000E96B012000070143E963E96B014001273A
:101DE000009184480168C90519D40168821511431E
:101DF0000160FFF71BFC00900DE083E0F0698007B5
:101E000049D5A06800287DD045E0FFF70FFC009978
:101E1000401A02284BD877480068C005F5D5A1685C
:101E2000012910D004200529F16911D04908490081
:101E3000F161F1698143F161A068002816D0FFF7D4
:101E4000F5FB00900EE0F06901210843F061F3E733
:101E50000143F161F7E7FFF7E9FB0099411A664892
:101E6000814224D8F0698007F5D50DE0FFF7DEFB4D
:101E7000009006E0FFF7DAFB0099411A5E488142C4
:101E80007FD8F0698007F5D4002F04D0E96B0120DA
:101E900000078143E9632078800624D50120E169A9
:101EA00080050029296810D00143296000E068E01E
:101EB000FFF7BCFB064604E0FFF7B8FB801B0228D7
:101EC0005FD828680002F7D50DE081432960FFF74D
:101ED000ADFB064604E0FFF7A9FB801B022850D8A3
:101EE00028680002F7D4206A002844D0A96889062F
:101EF000490F02294FD0012636060228286807D04C
:101F0000B04300E07FE02860FFF790FB04463AE032
:101F1000B0432860FFF78AFB074604E0FFF786FB23
:101F2000C01B02282DD828688001F7D4A16A606AF6
:101F3000E26A0843216B120211430843616B0843B4
:101F4000A16B0843E9682D4A11400843E8602868FE
:101F500030432860E868012109070843E860FFF77B
:101F600065FB044604E0FFF761FB001B022808D86C
:101F700028688001F7D548E0FFF758FB001B0228CE
:101F800001D90320F8BD28688001F5D4E8681C4910
:101F90000840E86039E00128F4D0E868626A810707
:101FA000890F91422FD17021A26A014091422AD11A
:101FB0007F21E26A090201401202914223D11F21CE
:101FC0004904226B014091421DD107214906626BF1
:101FD0000140914217D1400FA16B4007884211E0A8
:101FE000001002400024F4000C0000200400002037
:101FF0004010024000700040881300008C80C11126
:10200000FCFFFEEE01D00120F8BD0020F8BD00006D
:1020100003490A6803235B029A4302430A6070473C
:1020200000000140094910B5401E884201D9012035
:1020300010BD074C60610321081F00F097FA0020D3
:10204000A06107202061002010BD0000FFFFFF00FD
:1020500000E000E0F0B5034620331A7F012A2DD0BE
:1020600001221A7702225A7705686A68AC68144E12
:10207000B54204D10F273F05BA434F683A43702752
:10208000BA430F6817436F600068B0420CD001225A
:102090009207904208D00B4A904205D00A4A9042DB
:1020A00002D00A4A904204D1802289689443214395
:1020B00081600120587700201877F0BD0220F0BD24
:1020C000002C014000040040000800400040014096
:1020D00070B5040005D025462035687F002802D061
:1020E00006E0012070BD00202877204600F016F899
:1020F00002206877211D206800F09CF901224034FD
:102100002272AA77EA7722706270A270E27022715E
:102110006271A271E2716A77002070BD08B5006833
:102120000549884207D10548C26B02210A43C263B0
:10213000C06B0840009008BD000400400010024041
:10214000014620314A7F012A01D001207047022236
:102150004A770168CB6801221343CB6000680E49BF
:1021600088420BD09107884208D00C49884205D09C
:102170000B49884202D00B49884207D181680A4B3B
:102180001940062905D0DB1F994202D0016811438E
:102190000160002070470000002C01400004004056
:1021A000000800400040014007000100F8B5054666
:1021B00004462035287F0026012817D001272F77D5
:1021C00002206877226890682F4B1840FF231B027B
:1021D000984390600868502838D00EDC20284FD0F3
:1021E00006DC00284CD010281ED149E00220F8BDA2
:1021F000302845D0402817D13AE060282ED07028EA
:1022000018D001221203801A0FD090420CD1CB6853
:102210004A688968206800F061F9206881680122B5
:1022200092031143816000E001266F770020287738
:102230003046F8BDCB684A688968206800F04EF9DE
:1022400021688868772210438860EEE7CA68496889
:10225000206800F059F95021206806E0CA684968F2
:10226000206800F062F96021206800F043F9DCE7A3
:10227000CA684968206800F047F940212068F4E7FF
:10228000226801461046F0E788FFCEFFFEE7000017
:1022900072B605494868054A10600A6882F30888E2
:1022A000034A91608047FEE7009000083800002054
:1022B00000ED00E070B51D481B4901600021416040
:1022C00081600122C1600274427406468274042354
:1022D0000C24032514363CC63CC6022206C6C16344
:1022E000FEF7E8FE002801D072B6FEE700220721C3
:1022F0000E48FEF70BFD002801D072B6FEE7012163
:102300000022C9040948FEF701FD002801D072B679
:10231000FEE70648FFF727F8002801D072B6FEE76F
:1023200000F062FA70BD0000006400403C00002034
:1023300010B588B0002400940194194802940394C5
:102340000494059415490694016007218460416056
:1023500014490461C16080218161FFF7B9FE002842
:1023600001D072B6FEE701200003009069460C48D8
:10237000FFF71CFF002801D072B6FEE7049404A901
:1023800007480694FFF766FE002801D072B6FEE704
:102390000348FFF7D5FE08B010BD00000004004060
:1023A000A00000200F270000FEE77047704710B51F
:1023B000FFF742F910BD10B594B03C216846FDF717
:1023C000ABFF002401200F9410941194400212944A
:1023D000FFF7AAF902200090C00103904020059069
:1023E000049408946846FFF7F7FB002801D072B602
:1023F000FEE707200F9010941194002112940FA86B
:10240000FFF7F8FA002801D072B6FEE714B010BD4D
:102410007047000010B50248FEF795FD10BD0000A2
:102420003C00002010B50248FEF78DFD10BD0000F5
:102430003C000020F0B50268214B0124A407214D87
:10244000214E984205D0A04203D0A84201D0B0420C
:1024500004D11746702297434A683A431B4F98426B
:1024600010D0A0420ED0A8420CD0B0420AD0184CD6
:10247000A04207D0B84205D0164CA04202D0164C5C
:10248000A04204D103242402A243CC682243802426
:10249000A2434C69224302608A68C2620A6882626F
:1024A000984207D0B84205D00A4A904202D00A4A60
:1024B000904201D10969016301214161F0BD000031
:1024C000002C014000040040000800400040014092
:1024D00000200040004401400048014030B58468BD
:1024E000FF252D021B021343AC430B4323438360A0
:1024F00030BD00008268034B1A400A4307210A439B
:10250000826070478FFFCFFF30B5036A046A6408AA
:10251000640004628469F025AC43120122430A245A
:10252000A3430B438261036230BD30B5036A1024BC
:10253000A34303628469036A0F252D031203AC438E
:102540002243A024A343090119438261016230BDE3
:1025500030B47446641E2578641CAB4200D21D461C
:10256000635D5B00E31830BC184700008307FF225F
:10257000DB0E9A408907090E9940002808DB830882
:1025800009489B001B18186890430843186070475F
:102590000007000F0838830804489B001B18D869FF
:1025A00090430843D861704700E400E000ED00E08C
:1025B000F8B5474C0546207B032821D160780026DA
:1025C0000300FFF7C5FF05040C1520451D00414918
:1025D000681DFDF7A3FE002811D1012036E03D491A
:1025E000681D0931FDF79AFE002808D102202DE070
:1025F0003849681D1231FDF791FE002801D0667040
:10260000F8BD032022E0681CAA79014610026B790C
:10261000EA79184340BA0004120210432A7A1043A0
:1026200060604A7A0B7A11021943EA7A49BA0904BE
:10263000120211432A7B1143A16019210903884228
:1026400003D966706660A660F8BD04206070F8BDAE
:1026500020691F4A0830206161681432884206D31D
:10266000401A2161C0B20821081A81B200E0082195
:10267000681D00F071F96061154C0020274618377D
:10268000FF340134218BFF2900D926832918228B9E
:102690004979D155218B401C491CC0B2218308289F
:1026A000F0D3FF2588B20135A842D0D10A49E069AC
:1026B0008842CCD226832A463946FEF793FA294629
:1026C0003846FDF729FEE0694019E061F8BD0000D9
:1026D000080100201C00002000AF03081CB50020EA
:1026E0000090019004486946007B0870FF20012299
:1026F000023000F00DF91CBD08010020FEB52B4C86
:1027000000216170009101914179002911D00129C6
:102710000FD18279FF250235012A0BD0002A37D04C
:1027200068460170F221417002226946284600F095
:10273000EFF8FEBD1D4B66691946FF31A7682131D0
:102740005B68B446BE4206D126699E4203D1002B87
:1027500001D00A7023E0BC4514D1002B12D00A70BE
:10276000417968460170F1214170014602222846F4
:1027700000F0CEF8012020730020A060606120618D
:102780006060FEBD0A70417968460170F021EBE798
:10279000012121730021A1606161216161604279A1
:1027A00069460A70807948700222BFE7080100205C
:1027B0001CB50B49032008730020CA1D4870094B43
:1027C000F932D361108348610861886048600090E5
:1027D000024601906946D81400F09AF81CBD00002A
:1027E000080100200020020810B5054C00202060E0
:1027F00060600448FDF7F0FC60606420608010BDFC
:102800001000002014050000002803D00178407853
:10281000814201D1012070470020704710B50400AB
:1028200009D020786188401CFDF7BCFD60788142AA
:1028300001D1012010BD002010BD70B50D4604006F
:102840000BD0002D09D06068002806D02046FFF785
:10285000E5FF002804D0002070BD0020C04370BDFB
:1028600020780D226168504308182946FDF7F5FCD1
:1028700020786188401CFDF795FD2170012070BD16
:102880007FB50C4609680091E1681046090C6A465C
:10289000117101466D460822681DFDF7DEFCE068F7
:1028A00008280DD000210B46082204E04419481DD9
:1028B000491C2354C9B268460079141A8C42F5D8D1
:1028C00069460248FFF7B9FF04B070BD1000002050
:1028D00010B50B46040007D0002B05D0FFF794FF7E
:1028E000002804D0002010BD0020C04310BD607837
:1028F0000D226168504309181846FDF7AEFC607858
:102900006188401CFDF74EFD6170012010BD000084
:10291000F8B500240E4B0E465C609C601C615C6147
:102920009C611104DC611C62FF27D9602546F537E4
:102930001860324606490748FEF763FA641CA4B2E1
:10294000BC4201D9012501E00028F2D12846F8BD9A
:102950002C0200203C000020F0B512680023D24376
:102960005F1E0A4E0EE0C45C624008245508D20780
:1029700000D03A463240641E6A402404240CF5D14B
:102980005B1C9BB28B42EED3D043F0BD2083B8EDED
:1029900008B5FEF759FEFFF70EFD0B48416B012409
:1029A00021434163406B20400090FFF783FCFFF719
:1029B000BFFC06480473FDF737FFFDF741FFFDF745
:1029C0007BFFFDF7B7FEF8E700100240080100208A
:1029D0000001020304050607080C101418203040FB
:1029E00000000000000000000000000000000000E7
:1029F00000000000000000000000000000000000D7
:102A000001000000020000000300000004000000BC
:102A10000600000007000000080000000900000098
:102A2000402A0008000000203C00000000010008CF
:102A30007C2A00083C000020C41500001C0100088E
:102A40000100000004000000000000000024F40069
:102A50000000000000000000000000005343554447
:102A60002D424D5300434F4D4F544F4D4F0030308A
:0C2A70003030303030300000000000003A
:04000005080000BD32
:00000001FF
