:020000040800F2
:1000000028140020690100081918000821170008A9
:1000100000000000000000000000000000000000E0
:100020000000000000000000000000001D18000893
:1000300000000000000000001B1800081F18000846
:100040007B0100087B0100087B0100087B010008A0
:100050007B0100087B0100087B0100087B01000890
:100060007B0100087B0100087B0100087B01000880
:100070007B0100087B0100087B0100087B01000870
:100080007B0100087B0100087B0100087B01000860
:100090007B0100087B0100087B0100087B01000850
:1000A0007B0100087B0100087B0100087B01000840
:1000B0007B0100087B0100087B01000800F002F8CA
:1000C00000F042F80CA030C8083824182D18A246B9
:1000D000671EAB4654465D46AC4201D100F034F891
:1000E0007E460F3E0FCCB6460126334200D0FB1AA7
:1000F000A246AB4633431847741900009419000018
:10010000103A02D378C878C1FAD8520701D330C860
:1001100030C101D504680C60704700000023002442
:1001200000250026103A01D378C1FBD8520700D32E
:1001300030C100D50B6070471FB50098019900F0E1
:100140004EF91FBD10B510BD00F0C9F91146FFF7FB
:10015000F3FF01F057FC00F0E1F903B4FFF7F2FF01
:1001600003BC00F011FA0000074880470748004729
:10017000FEE7FEE7FEE7FEE7FEE7FEE70448054987
:10018000054A064B7047000081180008BD000008B2
:10019000280100202814002028100020281000200A
:1001A00070B5064600F0FEF8056830460B30C4080E
:1001B000E400B44201D8002070BD68682A460028D7
:1001C00018D00168A14211D30B46214608318B4259
:1001D00008D3436801194B6003681B1B0B60516017
:1001E000046001E041685160001D70BD0246406836
:1001F0000028E6D12146284600F0DCF80028DCD1B2
:1002000070BD01E004C0091F0429FBD28B0701D592
:100210000280801CC90700D00270704700290BD0F3
:10022000C30702D00270401C491E022904D3830771
:1002300002D50280801C891EE3E70022EEE700223F
:10024000DFE7002203098B422CD3030A8B4211D330
:1002500000239C464EE003460B433CD40022430857
:100260008B4231D303098B421CD3030A8B4201D347
:1002700094463FE0C3098B4201D3CB01C01A5241DF
:1002800083098B4201D38B01C01A524143098B422F
:1002900001D34B01C01A524103098B4201D30B0118
:1002A000C01A5241C3088B4201D3CB00C01A52413D
:1002B00083088B4201D38B00C01A524143088B4202
:1002C00001D34B00C01A5241411A00D2014652419B
:1002D000104670475DE0CA0F00D04942031000D3BA
:1002E0004042534000229C4603098B422DD3030A0F
:1002F0008B4212D3FC22890112BA030A8B420CD31F
:10030000890192118B4208D3890192118B4204D347
:1003100089013AD0921100E08909C3098B4201D3C7
:10032000CB01C01A524183098B4201D38B01C01A01
:10033000524143098B4201D34B01C01A5241030978
:100340008B4201D30B01C01A5241C3088B4201D327
:10035000CB00C01A524183088B4201D38B00C01AD4
:100360005241D9D243088B4201D34B00C01A5241AB
:10037000411A00D20146634652415B10104601D338
:100380004042002B00D54942704763465B1000D3C2
:10039000404201B50020C046C04602BD70477047CC
:1003A0007047000000487047D00000207047704739
:1003B0007047704738B504460A4600206946C04673
:1003C000C046002805D002462046009900F066F895
:1003D000012038BD10B5012000F07AF810BDF8B545
:1003E000C046C046054600200C461020C0460646C2
:1003F000A819A0420DD9324669460020C046C04621
:10040000070001D100F064F80098A04200D0054632
:10041000C419FFF7C7FFF61D07460560F008C000C6
:100420004619284600F008F8B44204D0314638682E
:10043000A21B00F033F8F8BD00210160416080602C
:1004400070471020704770B50446051FFFF7AAFFDC
:100450000068002C1AD0446801E020466468002C33
:1004600001D0AC42F9D301680A18AA4204D12A6823
:1004700005468918016000E0456028684119A142DD
:1004800005D16168696021684018286070BD6C60A2
:1004900070BD000000487047C800002010B503463A
:1004A000406801E003464068002801D08842F9D343
:1004B0001868C3188B4206D0CB1CD808C000001D9A
:1004C000411A521A0146081D0A60FFF7BCFF10BD11
:1004D00010B500F031F800F029F810BD70477546EE
:1004E000FFF7D8FFAE46050069465346C008C00076
:1004F000854618B020B5FFF741FE60BC00274908CB
:10050000B6460026C0C5C0C5C0C5C0C5C0C5C0C5AB
:10051000C0C5C0C5403D49008D46704710B5044672
:10052000C046C0462046FFF718FE10BD10B5002893
:1005300001D000F029F810BD10B5012805D0002128
:1005400003A000F027F8012010BD09A1F8E7000082
:1005500053494752544D454D3A204F7574206F66AC
:100560002068656170206D656D6F72790000000014
:100570003A2048656170206D656D6F727920636FF8
:10058000727275707465640001491820ABBEFEE795
:100590002600020070B505460C460A2000E06D1CDE
:1005A00000F012F8002D06D028780028F7D102E0DC
:1005B000641C00F009F8002C02D020780028F7D144
:1005C0000A2000F001F870BD08B5694608700320E4
:1005D000ABBE08BD72B6FEE730B51A4C35230268D3
:1005E00017491B01A24200D11749803201641468E7
:1005F0001F252D04AC43858E2D042C4314600A4620
:10060000703242640268803214680F252D06AC43B4
:10061000058F2D062C4314600A46B0328264D8320E
:10062000C264132252018A1802654F22D2008A182E
:1006300042650022C81800E004C18142FCD330BDED
:1006400000B400400068004050B70040F7B55C229D
:10065000125CCB0582B00193012A08D0022A06D091
:10066000016E022211430166012005B0F0BD06684B
:10067000B26DCB0400930B049C460B024F078D0612
:100680008C039E46002F01D0D7071BD06F0F01D0DF
:10069000970717D5019F7F0F01D0570712D5009FED
:1006A0003F0F01D017070DD563465F0F01D0D70666
:1006B00008D5A70F01D0970604D573469F0E05D025
:1006C000570603D4F76D01231F43F7654B0701D08D
:1006D000D3071BD16B0F01D0930717D4019B5B0F7E
:1006E00001D0530712D4009B1B0F01D013070DD468
:1006F00063465B0F01D0D30608D4A30F01D0930645
:1007000004D473469B0E06D0520604D50268D36DFE
:1007100002242343D3650A0605D502688032D36DCF
:10072000049C2343D365CA0505D502688032136E45
:10073000049C234313660068426D0A43426500200F
:1007400093E70000F8B5040005D025464035287F22
:10075000002802D006E00120F8BD0020687720467E
:1007600000F0C2F82068816910229143816100F095
:10077000C1F90746012604E000F0BCF9C01B0A28B5
:1007800010D8206880690007F6D420688169314359
:10079000816100F0AFF907460AE000F0ABF9C01B39
:1007A0000A2805D9206E3043206603202877D2E737
:1007B00020688069C007F0D0206881690222114357
:1007C000816147482168814202D1464960680860DA
:1007D000207C40210128206882693AD00A43826146
:1007E000607C0121890301282068826933D08A4313
:1007F0008261A07C012109030128206882692CD034
:100800000A43826121688869032212029043A26828
:100810001043886120688169A42291438161216825
:100820000A69102082430A61E168012917D0002972
:100830001DD02022022916D021688B6980273B43D6
:100840008B6121680B6903430B61E06803280AD0C0
:100850000DE08A43C3E70A43CAE78A43D1E7206829
:100860008169042201E02068816911438161207E51
:100870007F21400649064018E1690902FF39013924
:100880000843216A491E0843A18A0A040121090478
:10089000521A10432268D0610320A26800028242EB
:1008A00010D1E26AA06A1202FF3A401E013A1043D8
:1008B000226B1201103A1043A28C1204511A084301
:1008C0002168C86020688030016CE26B11430164CC
:1008D0002046FFF781FE0020A06520662E77F8BD38
:1008E000006400400065004010B59AB00446142131
:1008F00013A8FFF7A4FC4C216846FFF7A0FC17499A
:100900002068884228D101204006002400901294DB
:10091000684600F079F9002801D0FFF75BFE104827
:10092000C26B81140A43C263C26B0A401892416BC6
:10093000012211434163406B15941040189003202D
:10094000C0021390022014900320179005201694E3
:1009500013A9000700F01CF81AB010BD0064004095
:1009600000100240014640310A7F012A05D0016E85
:100970000422114301660120704702220A770168B0
:100980008A69520852008A61002101660846704750
:10099000F0B5002303249DE001259D402A4072D03C
:1009A0000E79B607B60F012E01D0022E16D1866839
:1009B0002746B4465E00B646B7406646BE43B446D8
:1009C000CF687646B7406646374387604668AE4391
:1009D0000D79ED06ED0F9D40354345600D79ED43F2
:1009E000AD0708D0C5685F002646BE40B5438E6897
:1009F000BE402E43C6600D79AD07AD0F022D0ED15E
:100A0000DD08AD002D18AC462D6A5E07F60E0F27E7
:100A1000B740BD430F69B7402F4365462F62056855
:100A20005F002646BE40B5430E79B607B60FBE40FE
:100A30002E4306604D68AD03AD0F4AD09E08284D89
:100A4000B6007519AC462D6E9E07F60E0F27B740FF
:100A5000BD4305273F07B84201D1002715E0214FCC
:100A6000B84201D1012710E01F4FB84201D102273F
:100A70000BE01E4FB84201D1032706E01C4FB842DD
:100A800002D1042701E024E00527B7402F43144D8D
:100A9000664637662D684E689543F60200D51543C5
:100AA0000F4F3D607D684E689543B60200D51543F3
:100AB0007D600B4E803675684F689543BF0300D547
:100AC0001543756035684F689543FF0300D515439E
:100AD00035605B1C0A681546DD4000D05CE7F0BD60
:100AE000001802400004005000080050000C0050A4
:100AF000001000500148806870470000000000208E
:100B000002488168027889188160704700000020DF
:100B100010B50848002401688215114301600320C4
:100B200000F00AF8002801D0012401E000F028F8C4
:100B3000204610BD0020024070B50F4E00243178D1
:100B40000546002915D07D20C000FFF77AFB01463D
:100B50000A480068FFF775FB00F0AEFC002808D1DA
:100B6000042D06D200222946401E00F023F87560AD
:100B700000E00124204670BD000000200C00002091
:100B800008B50B480168012211430160006810405C
:100B9000009007484038C26B01040A43C263C06B2F
:100BA000084000900320400200F07CFC08BD0000DB
:100BB0004010024010B500F0F3FE10BD10B50F4C10
:100BC000216803225202914301432160C11FFF3972
:100BD000FA390ED10A480621006848430949FFF74F
:100BE00030FB401C02E0002805D0401E6169490529
:100BF000F9D4002010BD032010BD0000007000409B
:100C00000C00002040420F00FEB50446006800279B
:100C1000984D994E800355D500200090F06BC00090
:100C200007D4F16BA8050143F163F16B014001208A
:100C3000009092480168821511430160FFF75AFF46
:100C4000019005E0FFF756FF0199401A022825D8C8
:100C50008A480068C005F5D5E86903210902084003
:100C60000FD0216C81420CD0E86903210902EA69A6
:100C70008843012109040A43EA61EA698A43EA6177
:100C8000E861C0070FD0FFF735FF019008E0FFF7DC
:100C900031FF0199411A7A48814201D9032709E0BD
:100CA000E8698007F3D5E869032109028843216CCC
:100CB0000843E8610098002804D0F16B0120000788
:100CC0008143F1632078C00705D0686961688008B6
:100CD0008000084368612078800705D568690C2189
:100CE0008843A168084368612078400705D5686992
:100CF00030218843E168084368612078C00606D542
:100D00006869032189028843216908436861208852
:100D1000C00406D568690321090288436169084354
:100D200068612088800506D56869032189048843A5
:100D3000A16A084368612088400506D568690321D7
:100D400009058843E16A084368612078800606D572
:100D50006869032109038843A16908436861207811
:100D6000400606D56869032189038843E169084381
:100D70006861208840040ED56869216B8000800876
:100D8000084368610121206B8907884203D1F0681C
:100D900089130843F0602068000305D56869402185
:100DA0008843616B084368612068810235480BD530
:100DB00069698210A36B914319436961A16B9142E8
:100DC00002D1F1680143F160216849020AD56969DD
:100DD000E26B814311436961E16B814202D1F168A9
:100DE0000143F160218809050DD5A969226A8908A6
:100DF00089001143A961216A012904D1F168012206
:100E000012041143F160218889040DD5A9690C22CF
:100E10009143626A1143A961616A042904D1F168AE
:100E2000012212041143F1602168C9010ED5A9699C
:100E3000032212039143626C1143A9610122616C88
:100E40005203914202D1F1680143F16021688901A6
:100E50000DD5A969032212029143A26C1143A96125
:100E6000A26CD11FF93902D1F1680143F160384613
:100E7000FEBD000040100240001002400070004023
:100E80008813000000000001F8B50F46060043D0AB
:100E90004D4D28684007400FB84213D22868C0085B
:100EA000C00038432860FFF725FE044605E0FFF741
:100EB00021FE011B4548814261D828684007400F48
:100EC000B842F4D13068424C81070DD5400704D5B3
:100ED000A068072109030843A060A0680F21090248
:100EE0008843B1680843A0603078C00732D070688A
:100EF00001280AD002280BD000280FD034494031F5
:100F000003280ED0C969890704E02168890301E03C
:100F100021688901002906DB0120F8BD2168490507
:100F2000F8E7096AEFE7A168C908C9000143A160B1
:100F3000FFF7E0FD009006E0FFF7DCFD0099411AA5
:100F4000224881421BD8A068382108407168C90036
:100F50008842F1D128684007400FB84217D91A4893
:100F60000168C908C90039430160FFF7C3FD0546A0
:100F700007E0FFF7BFFD411B1448814201D9032060
:100F8000F8BD114800684007400FB842F1D13078F1
:100F9000400706D5A068072109038843F168084384
:100FA000A06000F01DF8A1683C2289091140094A9F
:100FB000515CC906C90EC840074908600748006867
:100FC000FFF7BAFDF8BD00000020024088130000C2
:100FD000001002402C1A00080C0000200400002021
:100FE00010B5204CA068204A8006400F16D0A0689B
:100FF0008006410F501001290FD0A1688906490FC2
:10100000022912D0A0688006400F042823D0A068CF
:101010008006400F032821D0002010BD2068012148
:101020008004400F8140104612E0E1688B07E168C0
:101030009B0F4906490F491C032B00D01046FFF7B0
:1010400000F9E1684904490E4843E168490F491C29
:10105000FFF7F7F810BD0120C00310BD7D2000028E
:1010600010BD0000001002400024F400F8B5040098
:101070007ED020783827C007FE4D002846D0A868CB
:10108000E96838408907890F102802D008280BD05A
:1010900001E0032908D001206268000482420AD1DD
:1010A00029680143296015E0286880032ED560680F
:1010B0000028DDD02AE0052301211B0489049A427F
:1010C0002A6802D10A432A60EAE782432A60286834
:1010D00088432860606800280CD0FFF70BFD0646A7
:1010E00004E0FFF707FD801B642873D8286880039D
:1010F000F7D50BE0FFF7FEFC064604E0FFF7FAFC2D
:10110000801B6428F1D828688003F7D420788007F2
:1011100069D5A868E96838408A070721920FC90293
:10112000102802D0002813D001E0022A10D0E06875
:10113000002846D028688843216908432860286829
:10114000FF21013108432860FFF7D4FC06462CE05C
:101150002A68520502D5E268002A89D06A687F238E
:101160001B029A4363691B021A436A60002800E06D
:101170008DE00ED1286888432169084328602868DB
:1011800001218004400F8140BB48FFF75AF8BB495A
:101190000860BB480068FFF7CFFC002877D122E049
:1011A000FFF7A8FC801B02289FD828684005F7D5C8
:1011B00068687F2109028843616909020843686001
:1011C00011E02968FF20013081432960FFF792FC7C
:1011D000064605E0B5E0FFF78DFC801B022884D8A9
:1011E00028684005F7D42078A64E00072ED5A868B9
:1011F0008006400F03280AD0A0690028306A16D064
:10120000012108433062FFF775FC07460BE0306AA6
:1012100080071BD5A06900289FD017E0FFF76AFC64
:10122000C01B0228C0D8306A8007F7D50EE04008FE
:1012300040003062FFF75EFC074604E0FFF75AFC0F
:10124000C01B02287DD8306A8007F7D42078400779
:101250006BD5A86800278006400F042818D0E86BDB
:10126000C00008D4E96B012000070143E963E96B82
:1012700001400127009184480168C90519D401681B
:10128000821511430160FFF735FC00900DE083E00B
:10129000F069800749D5A06800287DD045E0FFF7B8
:1012A00029FC0099401A02284BD877480068C005ED
:1012B000F5D5A168012910D004200529F16911D0C4
:1012C00049084900F161F1698143F161A068002892
:1012D00016D0FFF70FFC00900EE0F06901210843E3
:1012E000F061F3E70143F161F7E7FFF703FC0099D1
:1012F000411A6648814224D8F0698007F5D50DE08F
:10130000FFF7F8FB009006E0FFF7F4FB0099411AA5
:101310005E4881427FD8F0698007F5D4002F04D061
:10132000E96B012000078143E9632078800624D51A
:101330000120E16980050029296810D00143296056
:1013400000E068E0FFF7D6FB064604E0FFF7D2FBBB
:10135000801B02285FD828680002F7D50DE0814382
:101360002960FFF7C7FB064604E0FFF7C3FB801BBD
:10137000022850D828680002F7D4206A002844D0F8
:10138000A9688906490F02294FD00126360602288E
:10139000286807D0B04300E07FE02860FFF7AAFB91
:1013A00004463AE0B0432860FFF7A4FB074604E098
:1013B000FFF7A0FBC01B02282DD828688001F7D4B6
:1013C000A16A606AE26A0843216B12021143084372
:1013D000616B0843A16B0843E9682D4A114008433B
:1013E000E860286830432860E8680121090708435D
:1013F000E860FFF77FFB044604E0FFF77BFB001B80
:10140000022808D828688001F7D548E0FFF772FB6A
:10141000001B022801D90320F8BD28688001F5D4FB
:10142000E8681C490840E86039E00128F4D0E86821
:10143000626A8107890F91422FD17021A26A01400F
:1014400091422AD17F21E26A0902014012029142AF
:1014500023D11F214904226B014091421DD1072154
:101460004906626B0140914217D1400FA16B4007C2
:10147000884211E0001002400024F4000C0000201B
:10148000040000204010024000700040881300005B
:101490008C80C111FCFFFEEE01D00120F8BD0020C0
:1014A000F8BD000003490A6803235B029A43024324
:1014B0000A60704700000140094910B5401E88428B
:1014C00001D9012010BD074C60610321081F00F005
:1014D00067FA0020A06107202061002010BD0000F5
:1014E000FFFFFF0000E000E0F0B5034620331A7F65
:1014F000012A2DD001221A7702225A7705686A68DC
:10150000AC68144EB54204D10F273F05BA434F686B
:101510003A437027BA430F6817436F600068B042C0
:101520000CD001229207904208D00B4A904205D07D
:101530000A4A904202D00A4A904204D18022896825
:101540009443214381600120587700201877F0BD33
:101550000220F0BD002C01400004004000080040C3
:101560000040014070B5040005D025462035687F55
:10157000002802D006E0012070BD00202877204618
:1015800000F016F802206877211D206800F07AF933
:10159000012240342272AA77EA7722706270A27028
:1015A000E27022716271A271E2716A77002070BDEF
:1015B00008B500680549884207D10548C26B022179
:1015C0000A43C263C06B0840009008BD000400409D
:1015D00000100240014620314A7F012A01D001203B
:1015E000704702224A770168CB6801221343CB601F
:1015F00000680E4988420BD09107884208D00C49F8
:10160000884205D00B49884202D00B49884207D155
:1016100081680A4B1940062905D0DB1F994202D088
:10162000016811430160002070470000002C014058
:101630000004004000080040004001400700010095
:10164000F8B5054604462035287F0026012817D026
:1016500001272F7702206877226890682F4B184067
:10166000FF231B02984390600868502838D00EDC96
:1016700020284FD006DC00284CD010281ED149E08D
:101680000220F8BD302845D0402817D13AE0602824
:101690002ED0702818D001221203801A0FD0904249
:1016A0000CD1CB684A688968206800F03FF920684F
:1016B0008168012292031143816000E001266F7767
:1016C000002028773046F8BDCB684A6889682068D2
:1016D00000F02CF921688868772210438860EEE7D3
:1016E000CA684968206800F037F95021206806E090
:1016F000CA684968206800F040F96021206800F05D
:1017000021F9DCE7CA684968206800F025F9402122
:101710002068F4E7226801461046F0E788FFCEFF14
:10172000FEE7000070B51D481B49016000214160C3
:1017300081600122C16002744274064682740423EF
:101740000C24032514363CC63CC6022206C6C163DF
:10175000FEF7F8FF002801D072B6FEE7002207214D
:101760000E48FEF773FF002801D072B6FEE7012194
:101770000022C9040948FEF769FF002801D072B6AB
:10178000FEE70648FFF7EEF8002801D072B6FEE744
:1017900000F028F970BD000000640040180000202F
:1017A00010B588B000240094019419480294039461
:1017B00004940594154906940160072184604160F2
:1017C00014490461C16080218161FFF7CBFE0028CC
:1017D00001D072B6FEE701200003009069460C4874
:1017E000FFF72EFF002801D072B6FEE7049404A98B
:1017F00007480694FFF778FE002801D072B6FEE78E
:101800000348FFF7E7FE08B010BD000000040040E9
:101810007C0000200F270000FEE77047704710B5DE
:10182000FFF76EF910BD10B594B03C216846FEF785
:1018300006FD002401200F9410941194400212948C
:10184000FFF7BCF902200090C001039040200590F2
:10185000049408946846FFF709FC002801D072B68A
:10186000FEE707200F9010941194002112940FA806
:10187000FFF70AFB002801D072B6FEE714B010BDD6
:1018800070470000F0B50268214B0124A407214DE8
:10189000214E984205D0A04203D0A84201D0B042C8
:1018A00004D11746702297434A683A431B4F984227
:1018B00010D0A0420ED0A8420CD0B0420AD0184C92
:1018C000A04207D0B84205D0164CA04202D0164C18
:1018D000A04204D103242402A243CC6822438024E2
:1018E000A2434C69224302608A68C2620A6882622B
:1018F000984207D0B84205D00A4A904202D00A4A1C
:10190000904201D10969016301214161F0BD0000EC
:10191000002C01400004004000080040004001404D
:1019200000200040004401400048014030B5846878
:10193000FF252D021B021343AC430B43234383605B
:1019400030BD00008268034B1A400A4307210A4356
:10195000826070478FFFCFFF30B5036A046A640866
:10196000640004628469F025AC43120122430A2416
:10197000A3430B438261036230BD30B5036A102478
:10198000A34303628469036A0F252D031203AC434A
:101990002243A024A343090119438261016230BD9F
:1019A0008307FF22DB0E9A408907090E9940002821
:1019B00008DB830809489B001B18186890430843FC
:1019C000186070470007000F0838830804489B0020
:1019D0001B18D86990430843D861704700E400E0C1
:1019E00000ED00E010B5054C002020606060044868
:1019F000FEF7D6FB60606420608010BD1000002000
:101A00001405000008B5FFF783F8FFF70CFF064840
:101A1000416B012211434163406B10400090FFF77E
:101A200081FEFFF7BDFEFEE700100240000000004F
:101A300000000000000000000000000000000000A6
:101A40000000000000000000000000000100000095
:101A50000200000003000000040000000600000077
:101A60000700000008000000090000008C1A0008B0
:101A7000000000201800000000010008A41A00085F
:101A800018000020101400001C01000801000000D4
:101A900004000000000000000024F400000000002A
:041AA0000000000042
:04000005080000BD32
:00000001FF
