:020000040800F2
:10900000F8150020A191000899B3000849B20008A2
:109010000000000000000000000000000000000050
:109020000000000000000000000000009DB30008E8
:1090300000000000000000009BB300089FB3000880
:10904000B3910008B3910008B3910008B3910008F0
:10905000B3910008B3910008B3910008B3910008E0
:10906000B3910008B3910008B3910008B3910008D0
:10907000B3910008B3910008B3910008B3910008C0
:10908000B3910008B3910008B3910008B3910008B0
:10909000B391000811B4000821B40008B39100088E
:1090A000B3910008B3910008B3910008B391000890
:1090B000B3910008B3910008B391000800F002F8E2
:1090C00000F042F80CA030C8083824182D18A24629
:1090D000671EAB4654465D46AC4201D100F034F801
:1090E0007E460F3E0FCCB6460126334200D0FB1A17
:1090F000A246AB46334318479C290000BC29000018
:10910000103A02D378C878C1FAD8520701D330C8D0
:1091100030C101D504680C607047000000230024B2
:1091200000250026103A01D378C1FBD8520700D39E
:1091300030C100D50B6070471FB50098019900F051
:10914000FEF91FBD10B510BD00F079FA1146FFF70A
:10915000F3FF02F069FC00F091FA03B4FFF7F2FFAD
:1091600003BC00F0C1FA000070B505460C46164677
:1091700002E00FCC0FC5103E102EFAD2082E02D3FB
:1091800003CC03C5083E042E07D301CC01C5361F0E
:1091900003E021782970641C6D1C761EF9D270BD25
:1091A0000748804707480047FEE7FEE7FEE7FEE77F
:1091B000FEE7FEE704480549054A064B70470000F4
:1091C00001B40008BD900008F8020020F815002046
:1091D000F8110020F811002070B5064600F092F951
:1091E000056830460B30C408E400B44201D80020C2
:1091F00070BD68682A46002818D00168A14211D3C2
:109200000B46214608318B4208D3436801194B6055
:1092100003681B1B0B605160046001E041685160F2
:10922000001D70BD024640680028E6D12146284650
:1092300000F070F90028DCD170BD10B5202A04DBE5
:109240000146203A9140002010BD914020239C1AF5
:109250000346E3401943904010BDF8B5042A2CD3CF
:10926000830712D00B78491C0370401C521E8307E1
:109270000BD00B78491C0370401C521E830704D08E
:109280000B78491C0370401C521E8B079B0F05D0A6
:10929000C91ADF002023DE1B08C90AE0FFF764FFBC
:1092A000F8BD1D4608C9FD401C46B4402C4310C003
:1092B000121F042AF5D2F308C91A521EF0D40B78F3
:1092C000491C0370401C521EEAD40B78491C0370E1
:1092D000401C012AE4D409780170F8BD01E004C003
:1092E000091F0429FBD28B0701D50280801CC90706
:1092F00000D00270704700290BD0C30702D0027063
:10930000401C491E022904D3830702D50280801C19
:10931000891EE3E70022EEE70022DFE7024670B590
:109320000A4392072AD11E4DEE0104C808C9541BF6
:109330009443344017D0D0B2D9B2401A2106014329
:1093400010D190B299B2401A210401430AD11002FF
:109350001902000A090A401A2102014302D1100E23
:10936000190E401A70BD9A42DFD010BA19BA88425D
:1093700001D9012070BD0020C04370BD02780B7878
:10938000401C491C002A09D09A4207D102780B7868
:10939000401C491C002A01D09A42EFD0D01A70BD5F
:1093A00001010101002203098B422CD3030A8B42E5
:1093B00011D300239C464EE003460B433CD40022CD
:1093C00043088B4231D303098B421CD3030A8B42DF
:1093D00001D394463FE0C3098B4201D3CB01C01AAD
:1093E000524183098B4201D38B01C01A5241430978
:1093F0008B4201D34B01C01A524103098B4201D366
:109400000B01C01A5241C3088B4201D3CB00C01AD2
:10941000524183088B4201D38B00C01A524143084A
:109420008B4201D34B00C01A5241411A00D201466F
:109430005241104670475DE0CA0F00D04942031008
:1094400000D34042534000229C4603098B422DD357
:10945000030A8B4212D3FC22890112BA030A8B42FF
:109460000CD3890192118B4208D3890192118B424E
:1094700004D389013AD0921100E08909C3098B42D3
:1094800001D3CB01C01A524183098B4201D38B0116
:10949000C01A524143098B4201D34B01C01A5241B9
:1094A00003098B4201D30B01C01A5241C3088B42FE
:1094B00001D3CB00C01A524183088B4201D38B00E9
:1094C000C01A5241D9D243088B4201D34B00C01A73
:1094D0005241411A00D20146634652415B10104688
:1094E00001D34042002B00D54942704763465B10D0
:1094F00000D3404201B50020C046C04602BD7047BF
:109500007047704700487047A002002070477047BE
:109510007047704738B504460A4600206946C04681
:10952000C046002805D002462046009900F066F8A3
:10953000012038BD10B5012000F07AF810BDF8B553
:10954000C046C046054600200C461020C0460646D0
:10955000A819A0420DD9324669460020C046C0462F
:10956000070001D100F064F80098A04200D0054641
:10957000C419FFF7C7FFF61D07460560F008C000D5
:109580004619284600F008F8B44204D0314638683D
:10959000A21B00F033F8F8BD00210160416080603B
:1095A00070471020704770B50446051FFFF7AAFFEB
:1095B0000068002C1AD0446801E020466468002C42
:1095C00001D0AC42F9D301680A18AA4204D12A6832
:1095D00005468918016000E0456028684119A142EC
:1095E00005D16168696021684018286070BD6C60B1
:1095F00070BD0000004870479802002010B5034677
:10960000406801E003464068002801D08842F9D351
:109610001868C3188B4206D0CB1CD808C000001DA8
:10962000411A521A0146081D0A60FFF7BCFF10BD1F
:1096300010B500F031F800F029F810BD70477546FC
:10964000FFF7D8FFAE46050069465346C008C00084
:10965000854618B020B5FFF7ADFD60BC002749086E
:10966000B6460026C0C5C0C5C0C5C0C5C0C5C0C5BA
:10967000C0C5C0C5403D49008D46704710B5044681
:10968000C046C0462046FFF768FD10BD10B5002853
:1096900001D000F029F810BD10B5012805D0002137
:1096A00003A000F027F8012010BD09A1F8E7000091
:1096B00053494752544D454D3A204F7574206F66BB
:1096C0002068656170206D656D6F72790000000023
:1096D0003A2048656170206D656D6F727920636F07
:1096E000727275707465640001491820ABBEFEE7A4
:1096F0002600020070B505460C460A2000E06D1CED
:1097000000F012F8002D06D028780028F7D102E0EA
:10971000641C00F009F8002C02D020780028F7D152
:109720000A2000F001F870BD08B5694608700320F2
:10973000ABBE08BD1FB500240094019402940394AD
:1097400069461A4802F008F91949002808DC086837
:10975000401C0860FF22F532904200D90C601FBD0A
:109760000C60009880B2FF220332811A904219D017
:1097700005DCFF38013807D0012813D108E00329A0
:1097800009D00E290ED10AE0684602F04FF809E030
:1097900001F0CCFF06E0684601F006FF02E06846F3
:1097A00001F0D4FF00F006F81FBD000010000020FB
:1097B00018000020F0B585B0484C207B03286ED1FE
:1097C0000021029103910191454D009120462030E6
:1097D0000278012A63D10170618B401C049000293A
:1097E0000CD00020608316023246E069049900F034
:1097F00083F931460498FFF78DFDE561374800692C
:109800000106090E24D0060A761C0024771E1CE0EF
:10981000FF2201322846049900F05CF9FF3501353A
:10982000BC420AD12D482102008A6A46401A81B200
:10983000049802F0DBF8009006E0FF216A4601314F
:10984000049802F0D3F80090641CB442E0D314E012
:10985000060A0024FF2701370DE03A4628460499FE
:1098600000F038F9FF3501356A463946049802F0B0
:10987000BDF80090641CB442EFD3184C00996069A5
:1098800088420ED000202076606120610120694668
:109890000872FF20012202A9123002F07FF805B001
:1098A000F0BDCC206A46107150719071D0710422C5
:1098B00001A90C4800F020F96A4620691071010ADC
:1098C0005171010C9171000ED071042201A906485A
:1098D00000F012F900F0D8FEE1E70000740100206A
:1098E00000200208007800080080000872B6FEE739
:1098F00030B51949194C352302681B01A24200D129
:1099000017490164803214681F252D04AC43858EED
:109910002D042C4314600A4670324264026880327F
:1099200014680F252D06AC43058F2D062C431460BB
:109930000A46B0328264D832C264132252018A18B5
:1099400002654F22D2008A1842650022C81800E042
:1099500004C18142FCD330BD00B400400068004027
:1099600050B70040F0B58D680C694E682C430D6807
:10997000002E17D00126B60735432C438E69CD69DA
:109980000F8C35434E693F063E433543CE68354321
:10999000406D48267343C3181C605D600833002087
:1099A0000B4F0FE0AD042C43E8E71418E678155C84
:1099B00036063543A67864783604240226433543B8
:1099C00020C3001DCC68240C3C5D8442EDD8F0BD62
:1099D00044BA000803494A6901231B04184302439F
:1099E0004A6170470020024010B5084C6269084B7C
:1099F0001A4001235B03042801D01A4300E09A4374
:109A0000C800044910430843606110BD00200240B3
:109A100007E0FFFF0200010030B505494C69012550
:109A20002C434C610260BFF36F8F436030BD000078
:109A30000020024030B500220B4C63690125AD04C3
:109A40002B436361EFF3108372B603E020C920C09B
:109A5000521CD2B2402AF9D320698003800FFBD177
:109A600083F3108830BD000000200240F8B507469F
:109A700000F096FDC51903242404124E05E000F001
:109A80008FFDA84201D30320F8BD30692042F6D1F2
:109A900030690D4908400D493161002803D00C4957
:109AA00048600120F8BD00F07BFDC41905E000F01E
:109AB00077FDA04201D30320F8BD30694003F6D4FE
:109AC0000020F8BD00200240FAC30000FBC30800DC
:109AD000E800002030B500240AE008C8241DA4B224
:109AE0000B701D0A4D701D0C8D701B0ECB70091D67
:109AF0009442F2D330BD0000F7B586B0074600208F
:109B0000039002900120C006874202D2002009B0D3
:109B1000F0BD089843493A181F20C0063818C00AFB
:109B2000C0024018824201D90120029000F076FC68
:109B300001203D49C00308611F21C9067818C00AE9
:109B40000490C030059064E01F20C006381840051E
:109B50001BD136480221016035498F4205D30121CE
:109B6000C90341600599816003E0042141600499C3
:109B700081600121C16001A92C4800F0CDFB0028C3
:109B800003D000F00BFC0020C1E7029801281DD192
:109B90000020029025480221016025498F4205D30B
:109BA0000121C90341600599816003E004214160FE
:109BB000049981600121C16001A91C4800F0ACFB3F
:109BC000002803D000F0EAFB0020A0E7002425468F
:109BD0000026079807990078491C07910021F20098
:109BE000FFF72BFB04194D41761CF6B2082EF0D37B
:109BF00022462B463946012000F0DEFB002803D028
:109C000000F0CCFB002082E708370398083080B2D0
:109C1000039008990398884296D300F0BFFB012077
:109C200075E70000000800080020024064010020E1
:109C300000000208F7B582B05C22125CCB050193EC
:109C4000012A08D0022A06D0016E022211430166C1
:109C5000012005B0F0BD03689A6D0E04B4468E0372
:109C600000960E024F078C06CD04B646002F01D099
:109C7000D7071BD0670F01D0970717D5019F7F0F1C
:109C800001D0570712D52F0F01D017070ED5664602
:109C9000770F01D0D70609D5009FBF0F01D09706D7
:109CA00004D57646B70E05D0570603D4DF6D0126DE
:109CB0003743DF654B0701D0D3071BD1630F01D0BA
:109CC000930717D4019B5B0F01D0530712D42B0FBE
:109CD00001D013070ED463465B0F01D0D30609D41D
:109CE000009B9B0F01D0930604D473469B0E06D0B5
:109CF000520604D50268D36D02242343D3650A06B5
:109D000005D502688032D36D049C2343D365CA0510
:109D100005D502688032136E049C234313660068E5
:109D2000426D0A434265002093E770B504465C200B
:109D3000005D022805D0206E08210843206601201E
:109D400070BD20688030436C9B0206D5206E0121D7
:109D5000490208432066012070BD406C8003850FD6
:109D60002B462046FFF7FEFD01202168A8408031E8
:109D7000C864A065002070BD7047704700688030DF
:109D8000402903D080690007000F70470069000771
:109D9000000F7047F0B59C465C231B5C022B05D07E
:109DA000016E0822114301660120F0BDFF24013439
:109DB00040293AD0036880339D692D0747D09B69BD
:109DC0009B059D0F4823C46C6B43E71801243B6837
:109DD000A40723405360002B3ED03B68DB00DB0828
:109DE000136001243B686407234093603B68DB0FEA
:109DF000DB071361BB889BB2D3610F247B6824040B
:109E00002340D36001247B682405234053617B6891
:109E10006400234093617B685B005B0E13627B6888
:109E20000837DB0F536200241FE0036880331D698D
:109E30002D0707D01B699B059D0F4823846C6B433E
:109E4000E718C3E7016E214301660120F0BD016EF2
:109E5000214301660120F0BD3B68DB005B0D136010
:109E6000BFE73E5D63461E55641CD368074E1B0C5E
:109E7000F35CA342F5D8402904D000688030C56166
:109E80000020F0BD006880304561F9E744BA000861
:109E90007047F0B585B004462068016D0722920234
:109EA0001140426D0A400392016D4907490F426D0E
:109EB0000A400292016D38221140426D0A4001921F
:109EC000016DF12212041140476D0F40016D072210
:109ED00052041140426D0A400092456D016DCE431F
:109EE000710607D4E943490604D4402101652046A0
:109EF000FFF7CEFFF0050ED4E843C0050BD4206871
:109F000002468030836D016E1940FF2001301065DC
:109F1000204600F0FCF90398002806D02168039839
:109F200008652046039900F0F4F90298002806D04D
:109F30002168029808652046029900F097F9019877
:109F4000002806D02168019808652046019900F094
:109F5000C5F9B00509D4E843800506D4012021687D
:109F600040020865204600F0D5F930060DD4E843DC
:109F700000060AD4206803468030426DC16D11404E
:109F800080201865204600F0C3F9B00409D4E843E6
:109F9000800406D40120216840030865204600F0B3
:109FA000B5F9300409D4E843000406D4012021683F
:109FB000C0030865204600F0A8F970040AD4E843FD
:109FC000400407D40120216880030865206E8021A9
:109FD000084320660098002806D02168009808658C
:109FE00020460099FFF7C9FE002F04D020680765BE
:109FF000206E38432066206E002802D02046FFF7EE
:10A00000BBFE05B0F0BD0000F8B50446002C05D03D
:10A0100025464035287F002802D006E00120F8BD03
:10A0200000206877204600F0D3F82068816910226C
:10A030009143816100F0B4FA064601270BE000F07D
:10A04000AFFA801B0A2806D9206E38432066032009
:10A0500028770120F8BD206880690007EFD42068C8
:10A0600081693943816100F09BFA06460BE000F0FC
:10A0700097FA801B0A2806D9206E384320660320F1
:10A0800028770120F8BD20688069C007EFD02068DC
:10A0900081690222114381614B482168814202D1CA
:10A0A0004A4960680860207C402101283BD0206834
:10A0B00082690A438261607C01218903012837D0CB
:10A0C000206882698A438261A07C012109030128FA
:10A0D00033D0206882690A43826120688269032143
:10A0E0000902A3688A431A43826120688269A42313
:10A0F0009A43826120680369102293430361E068F8
:10A1000001281FD000282ED0022827D0206883697C
:10A110008026334383612068036913430361E06849
:10A12000032815D01FE0206882698A438261C2E754
:10A13000206882690A438261C6E7206882698A438F
:10A140008261CAE72068826904231A4382610AE0B7
:10A150002068826920231A43826104E020688269B2
:10A1600020231A438261207EE269401E521E40066F
:10A1700012021043226A521E1043A28A521E120477
:10A1800010432268D061A06888420FD1E16AA06ABA
:10A19000491E401E09020843216B491E090108435C
:10A1A000A18C491E090408432168C86020688030DA
:10A1B000016CE26B114301642046FFF799FB00201C
:10A1C000A06520662F77F8BD006400400065004060
:10A1D00010B59AB00446142115A8FFF79DF84C213C
:10A1E00002A8FFF799F81F492068884238D101205A
:10A1F000400602900024149402A800F079FA002886
:10A2000001D0FFF773FB1848C26B81140A43C26385
:10A21000C26B0A400192416B012211434163406BC2
:10A22000104001900320C002159002201690179450
:10A23000189403201990052015A9000700F002F9D1
:10A2400000221146152000F01BFA152000F00CFA30
:10A2500000221146162000F013FA162000F004FA2E
:10A260001AB010BD0064004000100240F8B5064668
:10A27000184886422CD148072AD0174B40211A464D
:10A280001F46343A1348FFF785FD40213046FFF75B
:10A2900075FDC5B210493A463439012001F034FB4E
:10A2A00000240EE00C4A3B46343A40210948FFF7AF
:10A2B00071FD09493A463439012001F025FB641C3F
:10A2C000E4B2AC42EED3002207213046FFF7B2FCE5
:10A2D000F8BD0000380000205C01002070470146F6
:10A2E00040310A7F012A05D0016E04221143016624
:10A2F0000120704702220A7701688A6952085200D9
:10A300008A610021016600207047704770477047DE
:10A310007047704770470000F8B504460E461D4F61
:10A32000387801280AD001203870002078607D201C
:10A33000C000FFF79BFB002802D028E00220F8BDF8
:10A340002168042904D00021C9433160A56814E0C4
:10A350006068FFF73FFB7D20C000FFF787FB16E03A
:10A3600029466068FFF740FB7D20C000FFF77EFBB9
:10A37000002801D0356005E06D1CE268A1688918ED
:10A38000A942EDD804494A6902239A434A6100214F
:10A390003970F8BDE8000020002002400120054986
:10A3A0004A69C3071A434A614969002900DA002053
:10A3B0007047000000200240F0B51FB40646144666
:10A3C0001D46144F387801280AD00120387000202B
:10A3D00078607D20C000FFF749FB002803D010E023
:10A3E000022005B0F0BD012E0ED021460198FFF7E6
:10A3F00021FB7D20C000FFF739FB07494A69B243C2
:10A400004A6100213970ECE722462B460198FFF79C
:10A4100003FBEEE7E8000020002002400020064990
:10A420004A69002A07DA054A8A60054A8A6049694A
:10A43000002900DA0120704700200240230167450F
:10A44000AB89EFCDF0B5002294E0012797403B4067
:10A45000002B7DD00C79A407A40F012C01D0022C75
:10A4600010D1856854000326A640B543CE68A640A7
:10A470002E4386604468BC430D79ED06ED0F954090
:10A48000254345600C79E443A40708D0C56854000F
:10A490000326A640B5438E68A6402E43C6600C79BD
:10A4A000A407A40F022C0CD1D408A40027183D6ADD
:10A4B0005407E40E0F26A640B5430E69A6402E436E
:10A4C0003E62056854000326A640B5430E79B607E0
:10A4D000B60FA6402E4306604C68A403A40F48D0D4
:10A4E0009508274CAD002F193D6E9407E40E0F26FA
:10A4F000A640B54305263607B04201D1002614E038
:10A50000204EB04201D101260FE01F4EB04201D1D2
:10A5100002260AE01D4EB04201D1032605E01C4E82
:10A52000B04201D1042600E00526A6402E43144D7A
:10A530003E662C689C434E68F60200D51C432C6096
:10A540006C689C434E68B60200D51C436C6000E00A
:10A550000FE00B4D80356C689C434E68B60300D508
:10A560001C436C602C689C434E68F60300D51C436A
:10A570002C60521C0B681C46D44000D065E7F0BD2F
:10A58000001802400004005000080050000C005069
:10A5900000100050002A01D081617047816270472D
:10A5A0000148806870470000000000200248816870
:10A5B00002788918816070470000002010B50024DF
:10A5C00007480168821511430160032000F00AF872
:10A5D000002801D0012401E000F02CF8204610BD35
:10A5E0000020024070B505460024104E3178002945
:10A5F00019D07D20C000FEF7D5FE01460C4800684A
:10A60000FEF7D0FE00F01AFD002801D001240BE077
:10A61000042D06D200222946501E00F031F8756044
:10A6200002E0012400E00124204670BD000000206B
:10A630000C00002008B50B4801680122114301609D
:10A6400000681040009007484038C26B01040A437C
:10A65000C263C06B084000900320400200F0E4FC9D
:10A6600008BD000040100240002805DBC106C90EED
:10A6700001208840014908607047000000E100E0C7
:10A6800010B500F06FFF10BDBFF34F8F04490348B2
:10A69000C860BFF34F8F00BFFDE700000400FA055C
:10A6A00000ED00E010B50F4C2168032252029143E7
:10A6B00001432160C11FFF39FA390ED10A48062132
:10A6C000006848430949FEF76DFE401C02E000287F
:10A6D00005D0401E61694905F9D4002010BD032052
:10A6E00010BD0000007000400C00002040420F0030
:10A6F000F0B585B0044600260020029020689F4DEA
:10A700009F4F800362D500200190F86BC00008D4F1
:10A71000F96BA8050143F963F96B01400091012031
:10A720000190984A1068911508431060FFF738FFB0
:10A73000039007E0FFF734FF0399401A022801D97C
:10A74000032603E08F480068C005F3D5002E04D02F
:10A7500002960198012834D038E0E8690321090203
:10A76000084000280FD0216C81420CD0E8690321F9
:10A7700009028843EA69012109040A43EA61EA6996
:10A780008A43EA61E861C0070FD0FFF709FF039031
:10A7900008E0FFF705FF0399411A7B48814201D980
:10A7A000032602E0E8698007F3D5002E01D0029667
:10A7B000CFE7E869032109028843216C0843E86177
:10A7C000C7E7F86B012109078843F8632078C007C1
:10A7D00005D0686961688008800008436861207856
:10A7E0000C268007002804DA6869A168B043084392
:10A7F00068612078400705D5686930218843E168A1
:10A80000084368612078C00606D56869032189027B
:10A8100088432169084368612088C00406D56869B7
:10A820000321090288436169084368612088800523
:10A8300006D56869032189048843A16A08436861D1
:10A840002088400506D56869032109058843E16A27
:10A85000084368612078800606D5686903210903EA
:10A860008843A169084368612078400606D5686975
:10A87000032189038843E169084368612088400413
:10A880000ED56869216B800080080843686101214A
:10A89000206B8907884203D1F86889130843F86060
:10A8A0002068000305D5686940218843616B08432F
:10A8B00068612068810235480BD56A698110A36BF5
:10A8C0008A431A436A61A26B8A4202D1F968014342
:10A8D000F960216849020AD56969E26B8143114335
:10A8E0006961E16B814202D1F9680143F960218815
:10A8F00009050DD5A969226A890889001143A96152
:10A90000216A012904D1F968012212041143F96076
:10A91000218889040CD5A969626AB1431143A961F0
:10A92000616A042904D1F968012212041143F96013
:10A930002168C9010ED5A969032212039143626CF3
:10A940001143A9610122616C5203914202D1F9685D
:10A950000143F960216889010DD5A969032212021A
:10A960009143A26C1143A961A26CD11FF93902D1A4
:10A97000F9680143F960029805B0F0BD401002404B
:10A980000010024000700040881300000000000129
:10A99000F8B504460D46002C0FD054480068400717
:10A9A000400FA84218D2514F3868C008C000284351
:10A9B0003860FFF7F5FD064609E00120F8BDFFF716
:10A9C000EFFD811B4A48814201D90320F8BD386858
:10A9D0004007400FA842F2D12068464E81070DD5AE
:10A9E000400704D5B068072109030843B060B06888
:10A9F0000F2109028843A1680843B0602078C0078E
:10AA00003BD0606801280CD002280FD0002812D05B
:10AA100038494031032813D0C969890715D401206A
:10AA2000F8BD3168890310D40120F8BD316889016F
:10AA30000BD40120F8BD3168490506D40120F8BDCA
:10AA4000096A890701D40120F8BDB168C908C900A5
:10AA50000143B160FFF7A4FD074607E0FFF7A0FD43
:10AA6000C11B2348814201D90320F8BDB0683821B9
:10AA700008406168C9008842F0D11C480168490754
:10AA8000490FA94216D90168C908C90029430160C4
:10AA9000FFF786FD074607E0FFF782FDC11B14485C
:10AAA000814201D90320F8BD104800684007400FDB
:10AAB000A842F1D12078400706D5B16807200003ED
:10AAC0008143E0680143B16000F01CF8B1683C22AA
:10AAD00089091140084A515CC906C90EC840074996
:10AAE000086007480068FFF77DFDF8BD00200240C0
:10AAF000881300000010024054BA00080C00002027
:10AB00000400002010B5244CA068244A8006400FA1
:10AB100016D0A0688006410F501001290FD0A168FF
:10AB20008906490F022914D0A0688006400F042826
:10AB30002CD0A0688006400F03282AD0002010BD2A
:10AB4000206801218004400F81401046FEF72AFC56
:10AB500010BDE1688B079B0FE1684906490F491C4E
:10AB6000032B0CD01046FEF71DFCE1684904490E8A
:10AB70004843E168490F491CFEF714FC10BDFEF77D
:10AB800011FCE1684904490E4843F2E70120C00383
:10AB900010BD7D20000210BD001002400024F40012
:10ABA000FEB50446002C0DD020783827C007F84E9B
:10ABB000002851D0B0683840F1688907890F102803
:10ABC00002D003E00120FEBD03290AD0082808D0E6
:10ABD00001216068090488420BD130680843306065
:10ABE0001AE03068800337D56068002834D101202E
:10ABF000FEBD052301221B049204984206D1306851
:10AC00001043306030680843306005E030688843A6
:10AC10003060306890433060606800280ED0FFF7E5
:10AC2000BFFC054606E0FFF7BBFC401B642801D9CA
:10AC30000320FEBD30688003F5D50DE0FFF7B0FCC2
:10AC4000054606E0FFF7ACFC401B642801D9032051
:10AC5000FEBD30688003F5D4207880076DD5B068DC
:10AC60003840F1688A07920F0721C902102801D1E4
:10AC7000022A12D0002810D0E06800284AD030689C
:10AC800088432169084330603068FF21013108435F
:10AC90003060FFF785FC054630E03268520502D58A
:10ACA000E268002A0AD072687F231B029A43636914
:10ACB0001B021A437260002802D010E00120FEBD82
:10ACC000306888432169084330603068012180047E
:10ACD000400F8140AF48FEF765FBAF490860AF48C1
:10ACE0000068FFF77FFC002827D00120FEBDFFF79A
:10ACF00057FC401B022801D90320FEBD30684005E7
:10AD0000F5D570687F21090288436169090208430B
:10AD1000706012E03168FF20013081433160FFF73D
:10AD20003FFC054606E0FFF73BFC401B022801D92B
:10AD30000320FEBD30684005F5D42078984D00070B
:10AD400034D5B0688006400F03280AD0A0690028D7
:10AD50001AD0286A012108432862FFF721FC074620
:10AD60000EE0286A800721D5A06900281ED10120A5
:10AD7000FEBDFFF715FCC01B022801D90320FEBD54
:10AD8000286A8007F5D511E0286A4008400028624B
:10AD9000FFF706FC074606E0FFF702FCC01B02288F
:10ADA00001D90320FEBD286A8007F5D4207840072A
:10ADB00076D500200190B0688006400F042818D096
:10ADC000F06BC00009D4F06B012109070843F06360
:10ADD000F06B084000900120019072480168C9059D
:10ADE0001AD40168821511430160FFF7D9FB0746A9
:10ADF0000EE0E869800753D5A068002850D10120F3
:10AE0000FEBDFFF7CDFBC01B022801D90320FEBD0C
:10AE100064480068C005F4D5A068012810D004215A
:10AE2000052812D0E86940084000E861E8698843D5
:10AE3000E861A06800281CD0FFF7B2FB074614E0C9
:10AE4000E86901210843E861F3E7E8690843E8613C
:10AE5000E86901210843E861EBE7FFF7A1FBC11BAB
:10AE60005148814201D90320FEBDE8698007F4D52D
:10AE70000EE0FFF795FB074607E0FFF791FBC11BCC
:10AE80004948814201D90320FEBDE8698007F4D416
:10AE90000198012804D1F06B012109078843F06370
:10AEA0002078800627D50120E1698005002911D08E
:10AEB000316801433160FFF773FB054606E0FFF799
:10AEC0006FFB401B022801D90320FEBD3068000241
:10AED000F5D510E0316881433160FFF761FB05462D
:10AEE00006E0FFF75DFB401B022801D90320FEBDF1
:10AEF00030680002F5D4206A002847D0B16889067E
:10AF0000490F022963D001273F06022806D0306886
:10AF1000B8433060FFF744FB044650E03068B84364
:10AF20003060FFF73DFB054606E0FFF739FB401BAD
:10AF3000022801D90320FEBD30688001F5D4A16A42
:10AF4000606AE26A0843216B120211430843616B95
:10AF50000843A16B0843F168144A11400843F060AC
:10AF6000306838433060F068012109070843F06019
:10AF7000FFF716FB044606E0FFF712FB001B022852
:10AF800001D90320FEBD30688001F5D548E00000FE
:10AF9000001002400024F4000C00002004000020F7
:10AFA0004010024000700040881300008C80C111E6
:10AFB000FFF7F6FA001B022801D90320FEBD306816
:10AFC0008001F5D4F06817490840F06028E00128B6
:10AFD00024D0F068626A8107890F91421CD17021E8
:10AFE000A26A0140914217D17F21E26A0902014021
:10AFF0001202914210D11F214904226B014091425B
:10B000000AD107214906626B0140914204D1400FE9
:10B01000A16B4007884203D00120FEBD0120FEBD88
:10B020000020FEBDFCFFFEEE034A116803235B0215
:10B0300099430143116070470000014010B5094970
:10B04000401E884201D9012010BD074C60610321D8
:10B05000081F00F087FA0020A0610720206100206F
:10B0600010BD0000FFFFFF0000E000E0F0B5034668
:10B0700020331A7F012A2DD001221A7702225A7713
:10B0800004686268A568144EB44204D10F273F05D6
:10B09000BA434F683A437027BA430F681743676053
:10B0A0000268B2420CD001208007824208D00B48CF
:10B0B000824205D00A48824202D00A48824204D124
:10B0C00080208543886828439060012058770020BD
:10B0D0001877F0BD0220F0BD002C014000040040B4
:10B0E000000800400040014070B50446002C05D027
:10B0F00025462035687F002802D006E0012070BD7B
:10B1000000202877204600F017F802206877211DDC
:10B11000206800F08DF9012240342272AA77EA7784
:10B1200022706270A270E27022716271A271E2718B
:10B130006A77002070BD000008B5006805498842A4
:10B1400007D10548C26B02210A43C263C06B0840A5
:10B15000009008BD0004004000100240F8B504460D
:10B16000002625462035287F012817D001272F7774
:10B170000220687720688268324B1A40FF231B0246
:10B180009A4382600868502838D00EDC202853D0BB
:10B1900006DC002850D010281ED14DE00220F8BD5A
:10B1A000302849D0402817D13CE0602830D07028A2
:10B1B00018D001221203801A0FD090420CD1CB6814
:10B1C0004A688968206800F085F920688168012252
:10B1D00092031143816000E001266F7700202877F9
:10B1E0003046F8BDCB684A688968206800F072F97B
:10B1F00020688168772211438160EEE7CA68496858
:10B20000206800F07DF95021206800F06FF9E4E734
:10B21000CA684968206800F084F96021206800F05D
:10B2200065F9DAE7CA684968206800F069F94021E1
:10B23000206800F05BF9D0E722680146104600F074
:10B2400055F9CAE788FFCEFFFEE7000070B51F483A
:10B250001D490160002141608160C16001220274CA
:10B26000427482744261042585610C24C461032305
:10B27000036242628562C4620363416302228263A5
:10B28000C163FEF7C1FE002801D0FEF72FFB0022AC
:10B2900007210E48FEF7CEFC002801D0FEF726FB62
:10B2A00001210022C9040948FEF7C4FC002801D08E
:10B2B000FEF71CFB0548FFF712F8002801D0FEF747
:10B2C00015FB00F0CFFA70BD00640040380000208C
:10B2D00030B587B0142102A8FEF71EF81048426B63
:10B2E00004210A434263426B0A400192416B0124EC
:10B2F00021434163406B204001900A4D0122082107
:10B300002846FFF747F90820029003940021049192
:10B31000059102A92846FFF795F807B030BD000057
:10B32000001002400008005010B588B000240494BA
:10B3300005940694079401940294039414481349C5
:10B3400001600721416084601249C1600461846129
:10B35000FFF7CAFE002801D0FEF7C8FA012000035B
:10B36000049004A90A48FFF7F9FE002801D0FEF76F
:10B37000BDFA0194039401A90548FFF777FE002860
:10B3800001D0FEF7B3FA08B010BD00000004004081
:10B390009C0000200F270000FEE77047704710B5A3
:10B3A000FFF704F910BD10B594B03C2105A8FDF7D6
:10B3B000B3FF0024019402940394049401204002FA
:10B3C000FFF770F902200590C00108900994402011
:10B3D0000A900D9405A8FFF7E3FB002801D0FEF7C3
:10B3E00085FA07200190029403940494002101A897
:10B3F000FFF7CEFA002801D0FEF778FA14B010BD9E
:10B4000002490148886070470090000800ED00E0A4
:10B4100010B50248FEF73DFD10BD000038000020C9
:10B4200010B50248FEF735FD10BD000038000020C1
:10B43000F0B50268204B0124A407204D204E98420D
:10B4400005D0A04203D0A84201D0B04203D170275A
:10B45000BA434F683A431B4F984210D0A0420ED0D7
:10B46000A8420CD0B0420AD0174CA04207D0B84234
:10B4700005D0164CA04202D0154CA04204D10324A2
:10B480002402A243CC6822438024A2434C69224375
:10B4900002608A68C2620A688262984207D0B84233
:10B4A00005D00A4A904202D0094A904201D1096966
:10B4B000016301214161F0BD002C01400004004006
:10B4C00000080040004001400020004000440140CE
:10B4D0000048014030B58468FF252D02AC431B02B3
:10B4E00013430B432343836030BD00008268034B4A
:10B4F0001A400A4307210A43826070478FFFCFFF3B
:10B5000030B5036A046A6408640004628469F02543
:10B51000AC43120122430A24A3430B43826103621A
:10B5200030BD30B5036A1024A34303628369046A03
:10B530000F252D03AB4312031A43A0239C4309019B
:10B5400021438261016230BD30B47446641E2578A7
:10B55000641CAB4200D21D46635D5B00E31830BC47
:10B56000184700008307FF22DB0E9A408907090E67
:10B570009940002808DB830809489B0018180368D5
:10B5800093430B43036070470007000F083883089C
:10B5900004489B001818C36993430B43C361704769
:10B5A00000E400E000ED00E0FEB504460026009651
:10B5B00001965B4D287B032818D12878F3270300D8
:10B5C000FFF7C2FF0504182D426D14005549601D98
:10B5D000FDF7A4FE00280AD02E7060796946087035
:10B5E0004F70FF200222123000F0D8F9FEBD01207A
:10B5F0002870FEBD4B49601D0931FDF78FFE002804
:10B600000AD02E706079694608704F70FF200222C0
:10B61000123000F0C3F9FEBD02202870FEBD414982
:10B62000601D1231FDF77AFE00280AD02E70607975
:10B63000694608704F70FF200222123000F0AEF908
:10B64000FEBD03202870FEBD6179207A09060843FB
:10B65000A179E27909041202114308436860627A11
:10B66000217B12061143A27AE37A12041B021A43C9
:10B670001143A9601921090388420DD92E706E600B
:10B68000AE60607969460870F4204870FF2002229D
:10B69000123000F083F9FEBD04202870FEBD286939
:10B6A000083028611E4A6968143288420AD3401A59
:10B6B000C0B229610821081A81B2601D00F096F914
:10B6C000686104E00821601D00F090F968610020C5
:10B6D000698BFF2900D96E8321184A79698B4B1C2D
:10B6E00049196B8320314A70401CC0B20828EFD33F
:10B6F000688BFF240134A042D0D10B49E86988420D
:10B70000CCD26E830649224621310E46FEF7F4F96B
:10B7100021463046FDF7FEFDE8690019E861FEBDEF
:10B72000740100201C00002000AF03081CB500209D
:10B730000090019004486946007B0870FF200122B8
:10B74000023000F02BF91CBD74010020FEB5364D0F
:10B7500000242C70009401944179002911D0012912
:10B760000FD18379012B0DD0002B4BD02C76407953
:10B7700069460870F2204870FF200222123000F063
:10B780000DF9FEBD284A6E691146AF682031526836
:10B79000B446BE4211D12E6996420ED1002A0CD079
:10B7A0000B7041796A46117080795070FF20022237
:10B7B0006946113000F0F2F8FEBDBC4514D1002AF4
:10B7C00012D02C7682790A70407969460870F1208F
:10B7D0004870FF200222123000F0E0F82C73AC60B9
:10B7E0006C612C616C60FEBD2C7682790A704079A8
:10B7F00069460870F0204870FF200222123000F0E5
:10B80000CDF8EBE72C762C73AC606C612C616C602E
:10B8100041796A46117080795070FF200222694692
:10B82000023000F0BBF8FEBD740100201CB50B48CF
:10B83000032101730121017600210170084AC261D0
:10B840004183416101618160416000910191FF206C
:10B8500000226946013000F0A1F81CBD74010020EF
:10B860000020020810B5054C0020206060600448EC
:10B87000FDF7B2FC60606420608010BD1000002005
:10B8800014050000002805D001784078814203D1DA
:10B8900001207047012070470020704710B5044612
:10B8A000002C09D020786188401CFDF77BFD607872
:10B8B000814203D1012010BD002010BD002010BD29
:10B8C00070B504460D46002C0BD0002D09D06068E1
:10B8D000002806D02046FFF7E1FF002804D0002012
:10B8E00070BD0020C04370BD20780D2261685043B8
:10B8F00008182946FDF7B1FC20786188401CFDF747
:10B9000051FD2170012070BD7FB50C4611462068A5
:10B910000090E0686A46000C10716D460822681DB0
:10B92000FDF79BFCE06808280DD0002100230820CB
:10B9300004E054194A1DA354491CC9B26A4612793D
:10B94000841A8C42F5D869460248FFF7B9FF04B063
:10B9500070BD00001000002010B504460B46002CFE
:10B9600008D0002B06D02046FFF78CFF002804D01B
:10B97000002010BD0020C04310BD60780D2261681A
:10B98000504309181846FDF768FC60786188401C30
:10B99000FDF708FD6170012010BD0000F8B50346F9
:10B9A0000F4601200024002516040E490B600022DA
:10B9B0004A608A60CE600A614A618A61CA610A622D
:10B9C000FF26F5360AE03A4606490748FEF7ADF984
:10B9D000641CA4B2B44201D9012501E00028F2D1CF
:10B9E0002846F8BD0401002038000020F0B50024EE
:10B9F0001268D243671E0B4E10E0035D5A400823C5
:10BA00005508D20701D03A4600E0002232406A4091
:10BA10005B1E9BB2002BF3D1641CA4B28C42ECD30E
:10BA2000D043F0BD2083B8ED62B6FEF7C7FDFFF747
:10BA3000BAFCFFF74DFCFFF709FCFFF775FCFDF7BB
:10BA400079FEFCE70001020304050607080C101448
:10BA5000182030400000000000000000000000003E
:10BA600000000000000000000000000000000000D6
:10BA700000000000010000000200000003000000C0
:10BA8000040000000600000007000000080000009D
:10BA900009000000B4BA00080000002038000000CF
:10BAA00000910008ECBA000838000020C015000022
:10BAB0001C910008010000000400000000000000CC
:10BAC0000024F4000000000000000000000000005E
:10BAD000534355442D424D5300434F4D4F544F4D0A
:0CBAE0004F00303030303030303000008B
:04000005080090BDA2
:00000001FF
